{
  "contractName": "ZKSenderShield",
  "abi": [
    {
      "inputs": [
        {
          "internalType": "address",
          "name": "_token",
          "type": "address"
        },
        {
          "internalType": "address",
          "name": "verifierAddress",
          "type": "address"
        },
        {
          "internalType": "uint256[][]",
          "name": "vk",
          "type": "uint256[][]"
        }
      ],
      "stateMutability": "nonpayable",
      "type": "constructor"
    },
    {
      "anonymous": false,
      "inputs": [
        {
          "components": [
            {
              "internalType": "string",
              "name": "varName",
              "type": "string"
            },
            {
              "internalType": "uint256[]",
              "name": "cipherText",
              "type": "uint256[]"
            },
            {
              "internalType": "uint256",
              "name": "ephPublicKey",
              "type": "uint256"
            }
          ],
          "indexed": false,
          "internalType": "struct ZKSenderShield.BackupDataElement[]",
          "name": "encPreimages",
          "type": "tuple[]"
        }
      ],
      "name": "EncryptedBackupData",
      "type": "event"
    },
    {
      "anonymous": false,
      "inputs": [
        {
          "indexed": false,
          "internalType": "uint256",
          "name": "leafIndex",
          "type": "uint256"
        },
        {
          "indexed": false,
          "internalType": "uint256",
          "name": "leafValue",
          "type": "uint256"
        },
        {
          "indexed": false,
          "internalType": "uint256",
          "name": "root",
          "type": "uint256"
        }
      ],
      "name": "NewLeaf",
      "type": "event"
    },
    {
      "anonymous": false,
      "inputs": [
        {
          "indexed": false,
          "internalType": "uint256",
          "name": "minLeafIndex",
          "type": "uint256"
        },
        {
          "indexed": false,
          "internalType": "uint256[]",
          "name": "leafValues",
          "type": "uint256[]"
        },
        {
          "indexed": false,
          "internalType": "uint256",
          "name": "root",
          "type": "uint256"
        }
      ],
      "name": "NewLeaves",
      "type": "event"
    },
    {
      "inputs": [
        {
          "internalType": "uint256",
          "name": "in_x",
          "type": "uint256"
        },
        {
          "internalType": "uint256",
          "name": "in_k",
          "type": "uint256"
        }
      ],
      "name": "Encipher",
      "outputs": [
        {
          "internalType": "uint256",
          "name": "out_x",
          "type": "uint256"
        }
      ],
      "stateMutability": "pure",
      "type": "function"
    },
    {
      "inputs": [
        {
          "internalType": "uint256[]",
          "name": "in_msgs",
          "type": "uint256[]"
        },
        {
          "internalType": "uint256",
          "name": "in_key",
          "type": "uint256"
        }
      ],
      "name": "Hash",
      "outputs": [
        {
          "internalType": "uint256",
          "name": "",
          "type": "uint256"
        }
      ],
      "stateMutability": "pure",
      "type": "function"
    },
    {
      "inputs": [],
      "name": "Initial_NullifierRoot",
      "outputs": [
        {
          "internalType": "uint256",
          "name": "",
          "type": "uint256"
        }
      ],
      "stateMutability": "view",
      "type": "function"
    },
    {
      "inputs": [
        {
          "internalType": "uint256",
          "name": "",
          "type": "uint256"
        }
      ],
      "name": "commitmentRoots",
      "outputs": [
        {
          "internalType": "uint256",
          "name": "",
          "type": "uint256"
        }
      ],
      "stateMutability": "view",
      "type": "function"
    },
    {
      "inputs": [
        {
          "internalType": "uint256",
          "name": "",
          "type": "uint256"
        }
      ],
      "name": "frontier",
      "outputs": [
        {
          "internalType": "uint256",
          "name": "",
          "type": "uint256"
        }
      ],
      "stateMutability": "view",
      "type": "function"
    },
    {
      "inputs": [
        {
          "internalType": "uint256",
          "name": "leafIndex",
          "type": "uint256"
        }
      ],
      "name": "getFrontierSlot",
      "outputs": [
        {
          "internalType": "uint256",
          "name": "slot",
          "type": "uint256"
        }
      ],
      "stateMutability": "pure",
      "type": "function"
    },
    {
      "inputs": [
        {
          "internalType": "uint256",
          "name": "leafValue",
          "type": "uint256"
        }
      ],
      "name": "insertLeaf",
      "outputs": [
        {
          "internalType": "uint256",
          "name": "root",
          "type": "uint256"
        }
      ],
      "stateMutability": "nonpayable",
      "type": "function"
    },
    {
      "inputs": [
        {
          "internalType": "uint256[]",
          "name": "leafValues",
          "type": "uint256[]"
        }
      ],
      "name": "insertLeaves",
      "outputs": [
        {
          "internalType": "uint256",
          "name": "root",
          "type": "uint256"
        }
      ],
      "stateMutability": "nonpayable",
      "type": "function"
    },
    {
      "inputs": [],
      "name": "latestRoot",
      "outputs": [
        {
          "internalType": "uint256",
          "name": "",
          "type": "uint256"
        }
      ],
      "stateMutability": "view",
      "type": "function"
    },
    {
      "inputs": [],
      "name": "leafCount",
      "outputs": [
        {
          "internalType": "uint256",
          "name": "",
          "type": "uint256"
        }
      ],
      "stateMutability": "view",
      "type": "function"
    },
    {
      "inputs": [
        {
          "internalType": "uint256[]",
          "name": "in_msgs",
          "type": "uint256[]"
        }
      ],
      "name": "mimcHash",
      "outputs": [
        {
          "internalType": "uint256",
          "name": "",
          "type": "uint256"
        }
      ],
      "stateMutability": "pure",
      "type": "function"
    },
    {
      "inputs": [],
      "name": "newNullifierRoot",
      "outputs": [
        {
          "internalType": "uint256",
          "name": "",
          "type": "uint256"
        }
      ],
      "stateMutability": "view",
      "type": "function"
    },
    {
      "inputs": [],
      "name": "reserve",
      "outputs": [
        {
          "internalType": "uint256",
          "name": "",
          "type": "uint256"
        }
      ],
      "stateMutability": "view",
      "type": "function"
    },
    {
      "inputs": [],
      "name": "token",
      "outputs": [
        {
          "internalType": "contract IERC20",
          "name": "",
          "type": "address"
        }
      ],
      "stateMutability": "view",
      "type": "function"
    },
    {
      "inputs": [],
      "name": "treeHeight",
      "outputs": [
        {
          "internalType": "uint256",
          "name": "",
          "type": "uint256"
        }
      ],
      "stateMutability": "view",
      "type": "function"
    },
    {
      "inputs": [],
      "name": "treeWidth",
      "outputs": [
        {
          "internalType": "uint256",
          "name": "",
          "type": "uint256"
        }
      ],
      "stateMutability": "view",
      "type": "function"
    },
    {
      "inputs": [
        {
          "internalType": "uint256",
          "name": "",
          "type": "uint256"
        },
        {
          "internalType": "uint256",
          "name": "",
          "type": "uint256"
        }
      ],
      "name": "vks",
      "outputs": [
        {
          "internalType": "uint256",
          "name": "",
          "type": "uint256"
        }
      ],
      "stateMutability": "view",
      "type": "function"
    },
    {
      "inputs": [],
      "name": "zero",
      "outputs": [
        {
          "internalType": "uint256",
          "name": "",
          "type": "uint256"
        }
      ],
      "stateMutability": "view",
      "type": "function"
    },
    {
      "inputs": [
        {
          "internalType": "address",
          "name": "",
          "type": "address"
        }
      ],
      "name": "zkpPublicKeys",
      "outputs": [
        {
          "internalType": "uint256",
          "name": "",
          "type": "uint256"
        }
      ],
      "stateMutability": "view",
      "type": "function"
    },
    {
      "inputs": [
        {
          "internalType": "uint256",
          "name": "pk",
          "type": "uint256"
        }
      ],
      "name": "registerZKPPublicKey",
      "outputs": [],
      "stateMutability": "nonpayable",
      "type": "function"
    },
    {
      "inputs": [
        {
          "internalType": "uint256",
          "name": "nullifierRoot",
          "type": "uint256"
        },
        {
          "internalType": "uint256",
          "name": "latestNullifierRoot",
          "type": "uint256"
        },
        {
          "internalType": "uint256[]",
          "name": "newNullifiers",
          "type": "uint256[]"
        },
        {
          "internalType": "uint256",
          "name": "commitmentRoot",
          "type": "uint256"
        },
        {
          "internalType": "uint256[]",
          "name": "newCommitments",
          "type": "uint256[]"
        },
        {
          "internalType": "uint256[]",
          "name": "proof",
          "type": "uint256[]"
        }
      ],
      "name": "joinCommitments",
      "outputs": [],
      "stateMutability": "nonpayable",
      "type": "function"
    },
    {
      "inputs": [
        {
          "internalType": "uint256",
          "name": "nullifierRoot",
          "type": "uint256"
        },
        {
          "internalType": "uint256",
          "name": "latestNullifierRoot",
          "type": "uint256"
        },
        {
          "internalType": "uint256[]",
          "name": "newNullifiers",
          "type": "uint256[]"
        },
        {
          "internalType": "uint256",
          "name": "commitmentRoot",
          "type": "uint256"
        },
        {
          "internalType": "uint256[]",
          "name": "newCommitments",
          "type": "uint256[]"
        },
        {
          "internalType": "uint256[]",
          "name": "proof",
          "type": "uint256[]"
        }
      ],
      "name": "splitCommitments",
      "outputs": [],
      "stateMutability": "nonpayable",
      "type": "function"
    },
    {
      "inputs": [
        {
          "internalType": "uint256",
          "name": "amountIn",
          "type": "uint256"
        },
        {
          "components": [
            {
              "internalType": "uint256",
              "name": "nullifierRoot",
              "type": "uint256"
            },
            {
              "internalType": "uint256",
              "name": "latestNullifierRoot",
              "type": "uint256"
            },
            {
              "internalType": "uint256[]",
              "name": "newNullifiers",
              "type": "uint256[]"
            },
            {
              "internalType": "uint256",
              "name": "commitmentRoot",
              "type": "uint256"
            },
            {
              "internalType": "uint256[]",
              "name": "newCommitments",
              "type": "uint256[]"
            },
            {
              "internalType": "uint256[]",
              "name": "customInputs",
              "type": "uint256[]"
            }
          ],
          "internalType": "struct ZKSenderShield.Inputs",
          "name": "inputs",
          "type": "tuple"
        },
        {
          "internalType": "uint256[]",
          "name": "proof",
          "type": "uint256[]"
        },
        {
          "components": [
            {
              "internalType": "string",
              "name": "varName",
              "type": "string"
            },
            {
              "internalType": "uint256[]",
              "name": "cipherText",
              "type": "uint256[]"
            },
            {
              "internalType": "uint256",
              "name": "ephPublicKey",
              "type": "uint256"
            }
          ],
          "internalType": "struct ZKSenderShield.BackupDataElement[]",
          "name": "BackupData",
          "type": "tuple[]"
        }
      ],
      "name": "vault",
      "outputs": [],
      "stateMutability": "nonpayable",
      "type": "function"
    },
    {
      "inputs": [
        {
          "components": [
            {
              "internalType": "uint256",
              "name": "nullifierRoot",
              "type": "uint256"
            },
            {
              "internalType": "uint256",
              "name": "latestNullifierRoot",
              "type": "uint256"
            },
            {
              "internalType": "uint256[]",
              "name": "newNullifiers",
              "type": "uint256[]"
            },
            {
              "internalType": "uint256",
              "name": "commitmentRoot",
              "type": "uint256"
            },
            {
              "internalType": "uint256[]",
              "name": "newCommitments",
              "type": "uint256[]"
            },
            {
              "internalType": "uint256[]",
              "name": "customInputs",
              "type": "uint256[]"
            }
          ],
          "internalType": "struct ZKSenderShield.Inputs",
          "name": "inputs",
          "type": "tuple"
        },
        {
          "internalType": "uint256[]",
          "name": "proof",
          "type": "uint256[]"
        },
        {
          "components": [
            {
              "internalType": "string",
              "name": "varName",
              "type": "string"
            },
            {
              "internalType": "uint256[]",
              "name": "cipherText",
              "type": "uint256[]"
            },
            {
              "internalType": "uint256",
              "name": "ephPublicKey",
              "type": "uint256"
            }
          ],
          "internalType": "struct ZKSenderShield.BackupDataElement[]",
          "name": "BackupData",
          "type": "tuple[]"
        }
      ],
      "name": "send",
      "outputs": [],
      "stateMutability": "nonpayable",
      "type": "function"
    },
    {
      "inputs": [
        {
          "internalType": "uint256",
          "name": "amountOut",
          "type": "uint256"
        },
        {
          "components": [
            {
              "internalType": "uint256",
              "name": "nullifierRoot",
              "type": "uint256"
            },
            {
              "internalType": "uint256",
              "name": "latestNullifierRoot",
              "type": "uint256"
            },
            {
              "internalType": "uint256[]",
              "name": "newNullifiers",
              "type": "uint256[]"
            },
            {
              "internalType": "uint256",
              "name": "commitmentRoot",
              "type": "uint256"
            },
            {
              "internalType": "uint256[]",
              "name": "newCommitments",
              "type": "uint256[]"
            },
            {
              "internalType": "uint256[]",
              "name": "customInputs",
              "type": "uint256[]"
            }
          ],
          "internalType": "struct ZKSenderShield.Inputs",
          "name": "inputs",
          "type": "tuple"
        },
        {
          "internalType": "uint256[]",
          "name": "proof",
          "type": "uint256[]"
        },
        {
          "components": [
            {
              "internalType": "string",
              "name": "varName",
              "type": "string"
            },
            {
              "internalType": "uint256[]",
              "name": "cipherText",
              "type": "uint256[]"
            },
            {
              "internalType": "uint256",
              "name": "ephPublicKey",
              "type": "uint256"
            }
          ],
          "internalType": "struct ZKSenderShield.BackupDataElement[]",
          "name": "BackupData",
          "type": "tuple[]"
        }
      ],
      "name": "unVault",
      "outputs": [],
      "stateMutability": "nonpayable",
      "type": "function"
    }
  ],
  "bytecode": "0x608060405260008055602060015560015460026200001e9190620004c4565b6002553480156200002e57600080fd5b50604051620051bf380380620051bf833981810160405281019062000054919062000368565b81602560006101000a81548173ffffffffffffffffffffffffffffffffffffffff021916908373ffffffffffffffffffffffffffffffffffffffff16021790555060005b81518110156200012357818181518110620000dc577f4e487b7100000000000000000000000000000000000000000000000000000000600052603260045260246000fd5b60200260200101516026600083815260200190815260200160002090805190602001906200010c92919062000195565b5080806200011a906200063f565b91505062000098565b507f2f68a1c58e257e42a17a6c61dff5551ed560b9922ab119d5ac8e184c9734ead960278190555082602b60006101000a81548173ffffffffffffffffffffffffffffffffffffffff021916908373ffffffffffffffffffffffffffffffffffffffff1602179055505050506200072c565b828054828255906000526020600020908101928215620001d4579160200282015b82811115620001d3578251825591602001919060010190620001b6565b5b509050620001e39190620001e7565b5090565b5b8082111562000202576000816000905550600101620001e8565b5090565b60006200021d62000217846200040b565b620003d7565b9050808382526020820190508260005b8581101562000261578151850162000246888262000324565b8452602084019350602083019250506001810190506200022d565b5050509392505050565b6000620002826200027c846200043a565b620003d7565b90508083825260208201905082856020860282011115620002a257600080fd5b60005b85811015620002d65781620002bb888262000351565b845260208401935060208301925050600181019050620002a5565b5050509392505050565b600081519050620002f181620006f8565b92915050565b600082601f8301126200030957600080fd5b81516200031b84826020860162000206565b91505092915050565b600082601f8301126200033657600080fd5b8151620003488482602086016200026b565b91505092915050565b600081519050620003628162000712565b92915050565b6000806000606084860312156200037e57600080fd5b60006200038e86828701620002e0565b9350506020620003a186828701620002e0565b925050604084015167ffffffffffffffff811115620003bf57600080fd5b620003cd86828701620002f7565b9150509250925092565b6000604051905081810181811067ffffffffffffffff82111715620004015762000400620006bc565b5b8060405250919050565b600067ffffffffffffffff821115620004295762000428620006bc565b5b602082029050602081019050919050565b600067ffffffffffffffff821115620004585762000457620006bc565b5b602082029050602081019050919050565b6000808291508390505b6001851115620004bb578086048111156200049357620004926200068d565b5b6001851615620004a35780820291505b8081029050620004b385620006eb565b945062000473565b94509492505050565b6000620004d18262000635565b9150620004de8362000635565b92506200050d7fffffffffffffffffffffffffffffffffffffffffffffffffffffffffffffffff848462000515565b905092915050565b600082620005275760019050620005fa565b81620005375760009050620005fa565b81600181146200055057600281146200055b5762000591565b6001915050620005fa565b60ff84111562000570576200056f6200068d565b5b8360020a9150848211156200058a57620005896200068d565b5b50620005fa565b5060208310610133831016604e8410600b8410161715620005cb5782820a905083811115620005c557620005c46200068d565b5b620005fa565b620005da848484600162000469565b92509050818404811115620005f457620005f36200068d565b5b81810290505b9392505050565b60006200060e8262000615565b9050919050565b600073ffffffffffffffffffffffffffffffffffffffff82169050919050565b6000819050919050565b60006200064c8262000635565b91507fffffffffffffffffffffffffffffffffffffffffffffffffffffffffffffffff8214156200068257620006816200068d565b5b600182019050919050565b7f4e487b7100000000000000000000000000000000000000000000000000000000600052601160045260246000fd5b7f4e487b7100000000000000000000000000000000000000000000000000000000600052604160045260246000fd5b60008160011c9050919050565b620007038162000601565b81146200070f57600080fd5b50565b6200071d8162000635565b81146200072957600080fd5b50565b614a83806200073c6000396000f3fe608060405234801561001057600080fd5b50600436106101735760003560e01c80639e886d75116100de578063be4079f611610097578063d0ca582111610071578063d0ca58211461049a578063d3679d0b146104b6578063d7b0fef1146104d2578063fc0c546a146104f057610173565b8063be4079f614610430578063cae8510d1461044c578063cd3293de1461047c57610173565b80639e886d7514610336578063a8f4324e14610352578063b6a1b7f614610382578063b7202434146103b2578063b74c3148146103e2578063bc1b392d1461041257610173565b80634c3df7ac116101305780634c3df7ac146102625780636e0c3fee1461027e57806376c601b1146102ae5780639636b3fd146102cc57806396d8d820146102ea57806397f3e0111461031a57610173565b806301e3e9151461017857806305bb4c40146101965780630fa16e38146101b4578063176764b5146101e45780632a3a81831461021457806330e69fc314610244575b600080fd5b61018061050e565b60405161018d91906144d4565b60405180910390f35b61019e610514565b6040516101ab91906144d4565b60405180910390f35b6101ce60048036038101906101c99190613ac0565b610538565b6040516101db91906144d4565b60405180910390f35b6101fe60048036038101906101f99190613a7f565b610584565b60405161020b91906144d4565b60405180910390f35b61022e60048036038101906102299190613bd9565b610ed1565b60405161023b91906144d4565b60405180910390f35b61024c610f61565b60405161025991906144d4565b60405180910390f35b61027c60048036038101906102779190613b3d565b610f67565b005b61029860048036038101906102939190613bd9565b611032565b6040516102a591906144d4565b60405180910390f35b6102b661104d565b6040516102c391906144d4565b60405180910390f35b6102d4611053565b6040516102e191906144d4565b60405180910390f35b61030460048036038101906102ff9190613cb2565b611059565b60405161031191906144d4565b60405180910390f35b610334600480360381019061032f9190613bd9565b6110a5565b005b610350600480360381019061034b9190613cee565b6110ec565b005b61036c60048036038101906103679190613cb2565b6112fa565b60405161037991906144d4565b60405180910390f35b61039c60048036038101906103979190613bd9565b61132b565b6040516103a991906144d4565b60405180910390f35b6103cc60048036038101906103c79190613bd9565b611343565b6040516103d991906144d4565b60405180910390f35b6103fc60048036038101906103f79190613a56565b611848565b60405161040991906144d4565b60405180910390f35b61041a611860565b60405161042791906144d4565b60405180910390f35b61044a60048036038101906104459190613c02565b611866565b005b61046660048036038101906104619190613a7f565b611b93565b60405161047391906144d4565b60405180910390f35b610484611ba7565b60405161049191906144d4565b60405180910390f35b6104b460048036038101906104af9190613cee565b611bad565b005b6104d060048036038101906104cb9190613c02565b611dbc565b005b6104da6120e9565b6040516104e791906144d4565b60405180910390f35b6104f86120ef565b60405161050591906143d9565b60405180910390f35b60015481565b7f2f68a1c58e257e42a17a6c61dff5551ed560b9922ab119d5ac8e184c9734ead981565b600080636d696d6360e01b905061057b84848360405160200161055b91906142f0565b6040516020818303038152906040528051906020012060001c605b612115565b91505092915050565b60008082519050600354600254116105d1576040517f08c379a00000000000000000000000000000000000000000000000000000000081526004016105c890614434565b60405180910390fd5b6003546002546105e19190614781565b8111156106415760006003546002546105fa9190614781565b826106059190614781565b905060005b8181101561062c57600185510385528080610624906148c6565b91505061060a565b5060035460025461063d9190614781565b9150505b6000806000806000600267ffffffffffffffff81111561068a577f4e487b7100000000000000000000000000000000000000000000000000000000600052604160045260246000fd5b6040519080825280602002602001820160405280156106b85781602001602082028036833780820191505090505b5090506000600167ffffffffffffffff8111156106fe577f4e487b7100000000000000000000000000000000000000000000000000000000600052604160045260246000fd5b60405190808252806020026020018201604052801561072c5781602001602082028036833780820191505090505b509050600060035490505b8760035461074591906146fa565b811015610b5d57896003548261075b9190614781565b81518110610792577f4e487b7100000000000000000000000000000000000000000000000000000000600052603260045260246000fd5b602002602001015193506001600254826107ac91906146fa565b6107b69190614781565b95506107c181610ed1565b96506000871415610811578360048860218110610807577f4e487b7100000000000000000000000000000000000000000000000000000000600052603260045260246000fd5b0181905550610b4a565b6000600190505b878111610b0857600060028861082e9190614919565b14156109bf5760046001826108439190614781565b6021811061087a577f4e487b7100000000000000000000000000000000000000000000000000000000600052603260045260246000fd5b0154846000815181106108b6577f4e487b7100000000000000000000000000000000000000000000000000000000600052603260045260246000fd5b60200260200101818152505084846001815181106108fd577f4e487b7100000000000000000000000000000000000000000000000000000000600052603260045260246000fd5b60200260200101818152505061091284611b93565b8360008151811061094c577f4e487b7100000000000000000000000000000000000000000000000000000000600052603260045260246000fd5b60200260200101818152505082600081518110610992577f4e487b7100000000000000000000000000000000000000000000000000000000600052603260045260246000fd5b6020026020010151945086955060026001886109ae9190614781565b6109b89190614750565b9650610af5565b84846000815181106109fa577f4e487b7100000000000000000000000000000000000000000000000000000000600052603260045260246000fd5b60200260200101818152505060005484600181518110610a43577f4e487b7100000000000000000000000000000000000000000000000000000000600052603260045260246000fd5b602002602001018181525050610a5884611b93565b83600081518110610a92577f4e487b7100000000000000000000000000000000000000000000000000000000600052603260045260246000fd5b60200260200101818152505082600081518110610ad8577f4e487b7100000000000000000000000000000000000000000000000000000000600052603260045260246000fd5b60200260200101519450869550600287610af29190614750565b96505b8080610b00906148c6565b915050610818565b508360048860218110610b44577f4e487b7100000000000000000000000000000000000000000000000000000000600052603260045260246000fd5b01819055505b8080610b55906148c6565b915050610737565b506000600187610b6d91906146fa565b90505b6001548111610e62576000600287610b889190614919565b1415610d19576004600182610b9d9190614781565b60218110610bd4577f4e487b7100000000000000000000000000000000000000000000000000000000600052603260045260246000fd5b015483600081518110610c10577f4e487b7100000000000000000000000000000000000000000000000000000000600052603260045260246000fd5b6020026020010181815250508383600181518110610c57577f4e487b7100000000000000000000000000000000000000000000000000000000600052603260045260246000fd5b602002602001018181525050610c6c83611b93565b82600081518110610ca6577f4e487b7100000000000000000000000000000000000000000000000000000000600052603260045260246000fd5b60200260200101818152505081600081518110610cec577f4e487b7100000000000000000000000000000000000000000000000000000000600052603260045260246000fd5b602002602001015193508594506002600187610d089190614781565b610d129190614750565b9550610e4f565b8383600081518110610d54577f4e487b7100000000000000000000000000000000000000000000000000000000600052603260045260246000fd5b60200260200101818152505060005483600181518110610d9d577f4e487b7100000000000000000000000000000000000000000000000000000000600052603260045260246000fd5b602002602001018181525050610db283611b93565b82600081518110610dec577f4e487b7100000000000000000000000000000000000000000000000000000000600052603260045260246000fd5b60200260200101818152505081600081518110610e32577f4e487b7100000000000000000000000000000000000000000000000000000000600052603260045260246000fd5b60200260200101519350859450600286610e4c9190614750565b95505b8080610e5a906148c6565b915050610b70565b508297508760001b60001c97507f39623a9bbcaf7943af164a1aee0fd809f7101d4d8c7727239dace363779587db6003548a8a604051610ea4939291906144ef565b60405180910390a18660036000828254610ebe91906146fa565b9250508190555050505050505050919050565b60006001600283610ee29190614919565b1415610f5c576000600190506000600290506000600182901b90505b6000841415610f585760008183600188610f1891906146fa565b610f229190614781565b610f2c9190614919565b1415610f3a57829350610f53565b809150600181901b90508280610f4f906148c6565b9350505b610efe565b5050505b919050565b60035481565b610ff5838380806020026020016040519081016040528093929190818152602001838360200280828437600081840152601f19601f8201169050808301925050505050505060016004811115610fe6577f4e487b7100000000000000000000000000000000000000000000000000000000600052602160045260246000fd5b86610ff090614857565b612227565b7f98a0e0e916a3d5499bcc75375ffa2b8c2edd4fe2cb77843c912a7770a0baee6081604051611024919061436b565b60405180910390a150505050565b6004816021811061104257600080fd5b016000915090505481565b60025481565b60275481565b600080636d696d6360e01b905061109c84848360405160200161107c91906142f0565b6040516020818303038152906040528051906020012060001c605b6135f7565b91505092915050565b80602a60003373ffffffffffffffffffffffffffffffffffffffff1673ffffffffffffffffffffffffffffffffffffffff1681526020019081526020016000208190555050565b6110f4613683565b600167ffffffffffffffff811115611135577f4e487b7100000000000000000000000000000000000000000000000000000000600052604160045260246000fd5b6040519080825280602002602001820160405280156111635781602001602082028036833780820191505090505b508160a0018190525060018160a001516000815181106111ac577f4e487b7100000000000000000000000000000000000000000000000000000000600052603260045260246000fd5b6020026020010181815250508981600001818152505088816020018181525050878780806020026020016040519081016040528093929190818152602001838360200280828437600081840152601f19601f82011690508083019250505050505050816040018190525085816060018181525050848480806020026020016040519081016040528093929190818152602001838360200280828437600081840152601f19601f8201169050808301925050505050505081608001819052506112ee838380806020026020016040519081016040528093929190818152602001838360200280828437600081840152601f19601f820116905080830192505050505050506004808111156112e8577f4e487b7100000000000000000000000000000000000000000000000000000000600052602160045260246000fd5b83612227565b50505050505050505050565b6026602052816000526040600020818154811061131657600080fd5b90600052602060002001600091509150505481565b60286020528060005260406000206000915090505481565b60006003546002541161138b576040517f08c379a000000000000000000000000000000000000000000000000000000000815260040161138290614434565b60405180910390fd5b6000611398600354610ed1565b9050600060016002546003546113ae91906146fa565b6113b89190614781565b90506000808590506000600267ffffffffffffffff811115611403577f4e487b7100000000000000000000000000000000000000000000000000000000600052604160045260246000fd5b6040519080825280602002602001820160405280156114315781602001602082028036833780820191505090505b5090506000600167ffffffffffffffff811115611477577f4e487b7100000000000000000000000000000000000000000000000000000000600052604160045260246000fd5b6040519080825280602002602001820160405280156114a55781602001602082028036833780820191505090505b50905060005b6001548110156117db57868114156114fe5783600488602181106114f8577f4e487b7100000000000000000000000000000000000000000000000000000000600052603260045260246000fd5b01819055505b600060028761150d9190614919565b1415611692576004816021811061154d577f4e487b7100000000000000000000000000000000000000000000000000000000600052603260045260246000fd5b015483600081518110611589577f4e487b7100000000000000000000000000000000000000000000000000000000600052603260045260246000fd5b60200260200101818152505083836001815181106115d0577f4e487b7100000000000000000000000000000000000000000000000000000000600052603260045260246000fd5b6020026020010181815250506115e583611b93565b8260008151811061161f577f4e487b7100000000000000000000000000000000000000000000000000000000600052603260045260246000fd5b60200260200101818152505081600081518110611665577f4e487b7100000000000000000000000000000000000000000000000000000000600052603260045260246000fd5b6020026020010151935085945060026001876116819190614781565b61168b9190614750565b95506117c8565b83836000815181106116cd577f4e487b7100000000000000000000000000000000000000000000000000000000600052603260045260246000fd5b60200260200101818152505060005483600181518110611716577f4e487b7100000000000000000000000000000000000000000000000000000000600052603260045260246000fd5b60200260200101818152505061172b83611b93565b82600081518110611765577f4e487b7100000000000000000000000000000000000000000000000000000000600052603260045260246000fd5b602002602001018181525050816000815181106117ab577f4e487b7100000000000000000000000000000000000000000000000000000000600052603260045260246000fd5b602002602001015193508594506002866117c59190614750565b95505b80806117d3906148c6565b9150506114ab565b508296508660001b60001c96507f522933b35bbca3f00d1a1ae17c09663f9286c4d868dc335a0ca99a970bc08784600354898960405161181d9392919061452d565b60405180910390a160036000815480929190611838906148c6565b9190505550505050505050919050565b602a6020528060005260406000206000915090505481565b60005481565b60008461187290614857565b9050600267ffffffffffffffff8111156118b5577f4e487b7100000000000000000000000000000000000000000000000000000000600052604160045260246000fd5b6040519080825280602002602001820160405280156118e35781602001602082028036833780820191505090505b508160a00181905250858160a0015160008151811061192b577f4e487b7100000000000000000000000000000000000000000000000000000000600052603260045260246000fd5b60200260200101818152505060018160a00151600181518110611977577f4e487b7100000000000000000000000000000000000000000000000000000000600052603260045260246000fd5b602002602001018181525050611a08848480806020026020016040519081016040528093929190818152602001838360200280828437600081840152601f19601f8201169050808301925050505050505060026004811115611a02577f4e487b7100000000000000000000000000000000000000000000000000000000600052602160045260246000fd5b83612227565b7f98a0e0e916a3d5499bcc75375ffa2b8c2edd4fe2cb77843c912a7770a0baee6082604051611a37919061436b565b60405180910390a185602c541015611a84576040517f08c379a0000000000000000000000000000000000000000000000000000000008152600401611a7b906143f4565b60405180910390fd5b602b60009054906101000a900473ffffffffffffffffffffffffffffffffffffffff1673ffffffffffffffffffffffffffffffffffffffff1663a9059cbb33886040518363ffffffff1660e01b8152600401611ae1929190614342565b602060405180830381600087803b158015611afb57600080fd5b505af1158015611b0f573d6000803e3d6000fd5b505050506040513d601f19601f82011682018060405250810190611b339190613b14565b611b72576040517f08c379a0000000000000000000000000000000000000000000000000000000008152600401611b6990614414565b60405180910390fd5b85602c6000828254611b849190614781565b92505081905550505050505050565b6000611ba0826000610538565b9050919050565b602c5481565b611bb5613683565b600167ffffffffffffffff811115611bf6577f4e487b7100000000000000000000000000000000000000000000000000000000600052604160045260246000fd5b604051908082528060200260200182016040528015611c245781602001602082028036833780820191505090505b508160a0018190525060018160a00151600081518110611c6d577f4e487b7100000000000000000000000000000000000000000000000000000000600052603260045260246000fd5b6020026020010181815250508981600001818152505088816020018181525050878780806020026020016040519081016040528093929190818152602001838360200280828437600081840152601f19601f82011690508083019250505050505050816040018190525085816060018181525050848480806020026020016040519081016040528093929190818152602001838360200280828437600081840152601f19601f820116905080830192505050505050508160800181905250611db0838380806020026020016040519081016040528093929190818152602001838360200280828437600081840152601f19601f8201169050808301925050505050505060036004811115611daa577f4e487b7100000000000000000000000000000000000000000000000000000000600052602160045260246000fd5b83612227565b50505050505050505050565b600084611dc890614857565b9050600267ffffffffffffffff811115611e0b577f4e487b7100000000000000000000000000000000000000000000000000000000600052604160045260246000fd5b604051908082528060200260200182016040528015611e395781602001602082028036833780820191505090505b508160a00181905250858160a00151600081518110611e81577f4e487b7100000000000000000000000000000000000000000000000000000000600052603260045260246000fd5b60200260200101818152505060018160a00151600181518110611ecd577f4e487b7100000000000000000000000000000000000000000000000000000000600052603260045260246000fd5b602002602001018181525050611f5e848480806020026020016040519081016040528093929190818152602001838360200280828437600081840152601f19601f8201169050808301925050505050505060006004811115611f58577f4e487b7100000000000000000000000000000000000000000000000000000000600052602160045260246000fd5b83612227565b7f98a0e0e916a3d5499bcc75375ffa2b8c2edd4fe2cb77843c912a7770a0baee6082604051611f8d919061436b565b60405180910390a160008611611fd8576040517f08c379a0000000000000000000000000000000000000000000000000000000008152600401611fcf90614454565b60405180910390fd5b602b60009054906101000a900473ffffffffffffffffffffffffffffffffffffffff1673ffffffffffffffffffffffffffffffffffffffff166323b872dd3330896040518463ffffffff1660e01b81526004016120379392919061430b565b602060405180830381600087803b15801561205157600080fd5b505af1158015612065573d6000803e3d6000fd5b505050506040513d601f19601f820116820180604052508101906120899190613b14565b6120c8576040517f08c379a00000000000000000000000000000000000000000000000000000000081526004016120bf90614414565b60405180910390fd5b85602c60008282546120da91906146fa565b92505081905550505050505050565b60295481565b602b60009054906101000a900473ffffffffffffffffffffffffffffffffffffffff1681565b60008084905060007f30644e72e131a029b85045b68181585d2833e84879b9709143e1f593f0000001905060005b87518110156122195781612199898381518110612189577f4e487b7100000000000000000000000000000000000000000000000000000000600052603260045260246000fd5b60200260200101518589896135f7565b838a84815181106121d3577f4e487b7100000000000000000000000000000000000000000000000000000000600052603260045260246000fd5b60200260200101516121e59190614919565b856121f091906146fa565b6121fa91906146fa565b6122049190614919565b92508080612211906148c6565b915050612143565b829350505050949350505050565b60008160a00151905060008260400151905060008360800151905083606001516028600086606001518152602001908152602001600020541461229f576040517f08c379a0000000000000000000000000000000000000000000000000000000008152600401612296906144b4565b60405180910390fd5b6000815160008451116122b35760006122b6565b60035b60ff16845186516122c791906146fa565b6122d191906146fa565b6122db91906146fa565b67ffffffffffffffff81111561231a577f4e487b7100000000000000000000000000000000000000000000000000000000600052604160045260246000fd5b6040519080825280602002602001820160405280156123485781602001602082028036833780820191505090505b50905060006004811115612385577f4e487b7100000000000000000000000000000000000000000000000000000000600052602160045260246000fd5b861415612509576000846000815181106123c8577f4e487b7100000000000000000000000000000000000000000000000000000000600052603260045260246000fd5b60200260200101518282806123dc906148c6565b935081518110612415577f4e487b7100000000000000000000000000000000000000000000000000000000600052603260045260246000fd5b6020026020010181815250508260008151811061245b577f4e487b7100000000000000000000000000000000000000000000000000000000600052603260045260246000fd5b602002602001015182828061246f906148c6565b9350815181106124a8577f4e487b7100000000000000000000000000000000000000000000000000000000600052603260045260246000fd5b60200260200101818152505060018282806124c2906148c6565b9350815181106124fb577f4e487b7100000000000000000000000000000000000000000000000000000000600052603260045260246000fd5b602002602001018181525050505b60016004811115612543577f4e487b7100000000000000000000000000000000000000000000000000000000600052602160045260246000fd5b861415612937576000856000015160275414612594576040517f08c379a000000000000000000000000000000000000000000000000000000000815260040161258b90614494565b60405180910390fd5b85600001518282806125a5906148c6565b9350815181106125de577f4e487b7100000000000000000000000000000000000000000000000000000000600052603260045260246000fd5b60200260200101818152505085602001518282806125fb906148c6565b935081518110612634577f4e487b7100000000000000000000000000000000000000000000000000000000600052603260045260246000fd5b6020026020010181815250508360008151811061267a577f4e487b7100000000000000000000000000000000000000000000000000000000600052603260045260246000fd5b602002602001015182828061268e906148c6565b9350815181106126c7577f4e487b7100000000000000000000000000000000000000000000000000000000600052603260045260246000fd5b6020026020010181815250508360018151811061270d577f4e487b7100000000000000000000000000000000000000000000000000000000600052603260045260246000fd5b6020026020010151828280612721906148c6565b93508151811061275a577f4e487b7100000000000000000000000000000000000000000000000000000000600052603260045260246000fd5b6020026020010181815250508560600151828280612777906148c6565b9350815181106127b0577f4e487b7100000000000000000000000000000000000000000000000000000000600052603260045260246000fd5b602002602001018181525050826000815181106127f6577f4e487b7100000000000000000000000000000000000000000000000000000000600052603260045260246000fd5b602002602001015182828061280a906148c6565b935081518110612843577f4e487b7100000000000000000000000000000000000000000000000000000000600052603260045260246000fd5b60200260200101818152505082600181518110612889577f4e487b7100000000000000000000000000000000000000000000000000000000600052603260045260246000fd5b602002602001015182828061289d906148c6565b9350815181106128d6577f4e487b7100000000000000000000000000000000000000000000000000000000600052603260045260246000fd5b60200260200101818152505060018282806128f0906148c6565b935081518110612929577f4e487b7100000000000000000000000000000000000000000000000000000000600052603260045260246000fd5b602002602001018181525050505b60026004811115612971577f4e487b7100000000000000000000000000000000000000000000000000000000600052602160045260246000fd5b861415612d655760008560000151602754146129c2576040517f08c379a00000000000000000000000000000000000000000000000000000000081526004016129b990614494565b60405180910390fd5b846000815181106129fc577f4e487b7100000000000000000000000000000000000000000000000000000000600052603260045260246000fd5b6020026020010151828280612a10906148c6565b935081518110612a49577f4e487b7100000000000000000000000000000000000000000000000000000000600052603260045260246000fd5b6020026020010181815250508560000151828280612a66906148c6565b935081518110612a9f577f4e487b7100000000000000000000000000000000000000000000000000000000600052603260045260246000fd5b6020026020010181815250508560200151828280612abc906148c6565b935081518110612af5577f4e487b7100000000000000000000000000000000000000000000000000000000600052603260045260246000fd5b60200260200101818152505083600081518110612b3b577f4e487b7100000000000000000000000000000000000000000000000000000000600052603260045260246000fd5b6020026020010151828280612b4f906148c6565b935081518110612b88577f4e487b7100000000000000000000000000000000000000000000000000000000600052603260045260246000fd5b60200260200101818152505083600181518110612bce577f4e487b7100000000000000000000000000000000000000000000000000000000600052603260045260246000fd5b6020026020010151828280612be2906148c6565b935081518110612c1b577f4e487b7100000000000000000000000000000000000000000000000000000000600052603260045260246000fd5b6020026020010181815250508560600151828280612c38906148c6565b935081518110612c71577f4e487b7100000000000000000000000000000000000000000000000000000000600052603260045260246000fd5b60200260200101818152505082600081518110612cb7577f4e487b7100000000000000000000000000000000000000000000000000000000600052603260045260246000fd5b6020026020010151828280612ccb906148c6565b935081518110612d04577f4e487b7100000000000000000000000000000000000000000000000000000000600052603260045260246000fd5b6020026020010181815250506001828280612d1e906148c6565b935081518110612d57577f4e487b7100000000000000000000000000000000000000000000000000000000600052603260045260246000fd5b602002602001018181525050505b60036004811115612d9f577f4e487b7100000000000000000000000000000000000000000000000000000000600052602160045260246000fd5b86141561310057846000015160275414612dee576040517f08c379a0000000000000000000000000000000000000000000000000000000008152600401612de590614494565b60405180910390fd5b60008560000151828280612e01906148c6565b935081518110612e3a577f4e487b7100000000000000000000000000000000000000000000000000000000600052603260045260246000fd5b6020026020010181815250508560200151828280612e57906148c6565b935081518110612e90577f4e487b7100000000000000000000000000000000000000000000000000000000600052603260045260246000fd5b60200260200101818152505083600081518110612ed6577f4e487b7100000000000000000000000000000000000000000000000000000000600052603260045260246000fd5b6020026020010151828280612eea906148c6565b935081518110612f23577f4e487b7100000000000000000000000000000000000000000000000000000000600052603260045260246000fd5b60200260200101818152505083600181518110612f69577f4e487b7100000000000000000000000000000000000000000000000000000000600052603260045260246000fd5b6020026020010151828280612f7d906148c6565b935081518110612fb6577f4e487b7100000000000000000000000000000000000000000000000000000000600052603260045260246000fd5b6020026020010181815250508560600151828280612fd3906148c6565b93508151811061300c577f4e487b7100000000000000000000000000000000000000000000000000000000600052603260045260246000fd5b60200260200101818152505082600081518110613052577f4e487b7100000000000000000000000000000000000000000000000000000000600052603260045260246000fd5b6020026020010151828280613066906148c6565b93508151811061309f577f4e487b7100000000000000000000000000000000000000000000000000000000600052603260045260246000fd5b60200260200101818152505060018282806130b9906148c6565b9350815181106130f2577f4e487b7100000000000000000000000000000000000000000000000000000000600052603260045260246000fd5b602002602001018181525050505b600480811115613139577f4e487b7100000000000000000000000000000000000000000000000000000000600052602160045260246000fd5b86141561349a57846000015160275414613188576040517f08c379a000000000000000000000000000000000000000000000000000000000815260040161317f90614494565b60405180910390fd5b6000856000015182828061319b906148c6565b9350815181106131d4577f4e487b7100000000000000000000000000000000000000000000000000000000600052603260045260246000fd5b60200260200101818152505085602001518282806131f1906148c6565b93508151811061322a577f4e487b7100000000000000000000000000000000000000000000000000000000600052603260045260246000fd5b60200260200101818152505083600081518110613270577f4e487b7100000000000000000000000000000000000000000000000000000000600052603260045260246000fd5b6020026020010151828280613284906148c6565b9350815181106132bd577f4e487b7100000000000000000000000000000000000000000000000000000000600052603260045260246000fd5b60200260200101818152505085606001518282806132da906148c6565b935081518110613313577f4e487b7100000000000000000000000000000000000000000000000000000000600052603260045260246000fd5b60200260200101818152505082600081518110613359577f4e487b7100000000000000000000000000000000000000000000000000000000600052603260045260246000fd5b602002602001015182828061336d906148c6565b9350815181106133a6577f4e487b7100000000000000000000000000000000000000000000000000000000600052603260045260246000fd5b602002602001018181525050826001815181106133ec577f4e487b7100000000000000000000000000000000000000000000000000000000600052603260045260246000fd5b6020026020010151828280613400906148c6565b935081518110613439577f4e487b7100000000000000000000000000000000000000000000000000000000600052603260045260246000fd5b6020026020010181815250506001828280613453906148c6565b93508151811061348c577f4e487b7100000000000000000000000000000000000000000000000000000000600052603260045260246000fd5b602002602001018181525050505b6000602560009054906101000a900473ffffffffffffffffffffffffffffffffffffffff1673ffffffffffffffffffffffffffffffffffffffff166387d9d0238984602660008c81526020019081526020016000206040518463ffffffff1660e01b815260040161350d9392919061438d565b602060405180830381600087803b15801561352757600080fd5b505af115801561353b573d6000803e3d6000fd5b505050506040513d601f19601f8201168201806040525081019061355f9190613b14565b9050806135a1576040517f08c379a000000000000000000000000000000000000000000000000000000000815260040161359890614474565b60405180910390fd5b6000835111156135d7576135b483610584565b602981905550602954602860006029548152602001908152602001600020819055505b6000845111156135ed5785602001516027819055505b5050505050505050565b6000600182101561360757600080fd5b604051602081016040528381527f30644e72e131a029b85045b68181585d2833e84879b9709143e1f593f0000001600080855b60008111156136705760208520855283898587518d0808925083838409915083838586858609850909995060018103905061363a565b5082888a08945050505050949350505050565b6040518060c001604052806000815260200160008152602001606081526020016000815260200160608152602001606081525090565b60006136cc6136c784614595565b614564565b9050808382526020820190508260005b8581101561370c57813585016136f288826138b2565b8452602084019350602083019250506001810190506136dc565b5050509392505050565b6000613729613724846145c1565b614564565b9050808382526020820190508285602086028201111561374857600080fd5b60005b85811015613778578161375e8882613a41565b84526020840193506020830192505060018101905061374b565b5050509392505050565b6000613795613790846145ed565b614564565b9050828152602081018484840111156137ad57600080fd5b6137b884828561486a565b509392505050565b6000813590506137cf81614a08565b92915050565b600082601f8301126137e657600080fd5b81356137f68482602086016136b9565b91505092915050565b60008083601f84011261381157600080fd5b8235905067ffffffffffffffff81111561382a57600080fd5b60208301915083602082028301111561384257600080fd5b9250929050565b600082601f83011261385a57600080fd5b813561386a848260208601613716565b91505092915050565b60008151905061388281614a1f565b92915050565b600082601f83011261389957600080fd5b81356138a9848260208601613782565b91505092915050565b6000606082840312156138c457600080fd5b6138ce6060614564565b9050600082013567ffffffffffffffff8111156138ea57600080fd5b6138f684828501613888565b600083015250602082013567ffffffffffffffff81111561391657600080fd5b61392284828501613849565b602083015250604061393684828501613a41565b60408301525092915050565b600060c0828403121561395457600080fd5b81905092915050565b600060c0828403121561396f57600080fd5b61397960c0614564565b9050600061398984828501613a41565b600083015250602061399d84828501613a41565b602083015250604082013567ffffffffffffffff8111156139bd57600080fd5b6139c984828501613849565b60408301525060606139dd84828501613a41565b606083015250608082013567ffffffffffffffff8111156139fd57600080fd5b613a0984828501613849565b60808301525060a082013567ffffffffffffffff811115613a2957600080fd5b613a3584828501613849565b60a08301525092915050565b600081359050613a5081614a36565b92915050565b600060208284031215613a6857600080fd5b6000613a76848285016137c0565b91505092915050565b600060208284031215613a9157600080fd5b600082013567ffffffffffffffff811115613aab57600080fd5b613ab784828501613849565b91505092915050565b60008060408385031215613ad357600080fd5b600083013567ffffffffffffffff811115613aed57600080fd5b613af985828601613849565b9250506020613b0a85828601613a41565b9150509250929050565b600060208284031215613b2657600080fd5b6000613b3484828501613873565b91505092915050565b60008060008060608587031215613b5357600080fd5b600085013567ffffffffffffffff811115613b6d57600080fd5b613b7987828801613942565b945050602085013567ffffffffffffffff811115613b9657600080fd5b613ba2878288016137ff565b9350935050604085013567ffffffffffffffff811115613bc157600080fd5b613bcd878288016137d5565b91505092959194509250565b600060208284031215613beb57600080fd5b6000613bf984828501613a41565b91505092915050565b600080600080600060808688031215613c1a57600080fd5b6000613c2888828901613a41565b955050602086013567ffffffffffffffff811115613c4557600080fd5b613c5188828901613942565b945050604086013567ffffffffffffffff811115613c6e57600080fd5b613c7a888289016137ff565b9350935050606086013567ffffffffffffffff811115613c9957600080fd5b613ca5888289016137d5565b9150509295509295909350565b60008060408385031215613cc557600080fd5b6000613cd385828601613a41565b9250506020613ce485828601613a41565b9150509250929050565b600080600080600080600080600060c08a8c031215613d0c57600080fd5b6000613d1a8c828d01613a41565b9950506020613d2b8c828d01613a41565b98505060408a013567ffffffffffffffff811115613d4857600080fd5b613d548c828d016137ff565b97509750506060613d678c828d01613a41565b95505060808a013567ffffffffffffffff811115613d8457600080fd5b613d908c828d016137ff565b945094505060a08a013567ffffffffffffffff811115613daf57600080fd5b613dbb8c828d016137ff565b92509250509295985092959850929598565b6000613dd9838361427b565b905092915050565b6000613ded83836142d2565b60208301905092915050565b613e02816147bf565b82525050565b6000613e1382614652565b613e1d81856146a5565b935083602082028501613e2f8561461d565b8060005b85811015613e6b5784840389528151613e4c8582613dcd565b9450613e578361467e565b925060208a01995050600181019050613e33565b50829750879550505050505092915050565b6000613e888261465d565b613e9281856146b6565b9350613e9d8361462d565b8060005b83811015613ece578151613eb58882613de1565b9750613ec08361468b565b925050600181019050613ea1565b5085935050505092915050565b6000613ee68261465d565b613ef081856146c7565b9350613efb8361462d565b8060005b83811015613f2c578151613f138882613de1565b9750613f1e8361468b565b925050600181019050613eff565b5085935050505092915050565b6000613f4482614668565b613f4e81856146c7565b9350613f598361463d565b8060005b83811015613f9157613f6e826149d7565b613f788882613de1565b9750613f8383614698565b925050600181019050613f5d565b5085935050505092915050565b613faf613faa826147dd565b61490f565b82525050565b613fbe81614833565b82525050565b6000613fcf82614673565b613fd981856146d8565b9350613fe9818560208601614879565b613ff2816149ea565b840191505092915050565b600061400a602f836146e9565b91507f5754462c2049542053484f554c44204e455645522048415050454e212057452760008301527f5645204245454e204841434b45442100000000000000000000000000000000006020830152604082019050919050565b6000614070600f836146e9565b91507f5472616e73666572206661696c656400000000000000000000000000000000006000830152602082019050919050565b60006140b06023836146e9565b91507f5468657265206973206e6f207370616365206c65667420696e2074686520747260008301527f65652e00000000000000000000000000000000000000000000000000000000006020830152604082019050919050565b6000614116601d836146e9565b91507f416d6f756e74206d7573742062652067726561746572207468616e20300000006000830152602082019050919050565b6000614156602f836146e9565b91507f5468652070726f6f6620686173206e6f74206265656e2076657269666965642060008301527f62792074686520636f6e747261637400000000000000000000000000000000006020830152604082019050919050565b60006141bc6023836146e9565b91507f496e707574204e756c6c6966696572526f6f7420646f6573206e6f742065786960008301527f73742e00000000000000000000000000000000000000000000000000000000006020830152604082019050919050565b60006142226024836146e9565b91507f496e70757420636f6d6d69746d656e74526f6f7420646f6573206e6f7420657860008301527f6973742e000000000000000000000000000000000000000000000000000000006020830152604082019050919050565b600060608301600083015184820360008601526142988282613fc4565b915050602083015184820360208601526142b28282613e7d565b91505060408301516142c760408601826142d2565b508091505092915050565b6142db81614829565b82525050565b6142ea81614829565b82525050565b60006142fc8284613f9e565b60048201915081905092915050565b60006060820190506143206000830186613df9565b61432d6020830185613df9565b61433a60408301846142e1565b949350505050565b60006040820190506143576000830185613df9565b61436460208301846142e1565b9392505050565b600060208201905081810360008301526143858184613e08565b905092915050565b600060608201905081810360008301526143a78186613edb565b905081810360208301526143bb8185613edb565b905081810360408301526143cf8184613f39565b9050949350505050565b60006020820190506143ee6000830184613fb5565b92915050565b6000602082019050818103600083015261440d81613ffd565b9050919050565b6000602082019050818103600083015261442d81614063565b9050919050565b6000602082019050818103600083015261444d816140a3565b9050919050565b6000602082019050818103600083015261446d81614109565b9050919050565b6000602082019050818103600083015261448d81614149565b9050919050565b600060208201905081810360008301526144ad816141af565b9050919050565b600060208201905081810360008301526144cd81614215565b9050919050565b60006020820190506144e960008301846142e1565b92915050565b600060608201905061450460008301866142e1565b81810360208301526145168185613edb565b905061452560408301846142e1565b949350505050565b600060608201905061454260008301866142e1565b61454f60208301856142e1565b61455c60408301846142e1565b949350505050565b6000604051905081810181811067ffffffffffffffff8211171561458b5761458a6149a8565b5b8060405250919050565b600067ffffffffffffffff8211156145b0576145af6149a8565b5b602082029050602081019050919050565b600067ffffffffffffffff8211156145dc576145db6149a8565b5b602082029050602081019050919050565b600067ffffffffffffffff821115614608576146076149a8565b5b601f19601f8301169050602081019050919050565b6000819050602082019050919050565b6000819050602082019050919050565b60008190508160005260206000209050919050565b600081519050919050565b600081519050919050565b600081549050919050565b600081519050919050565b6000602082019050919050565b6000602082019050919050565b6000600182019050919050565b600082825260208201905092915050565b600082825260208201905092915050565b600082825260208201905092915050565b600082825260208201905092915050565b600082825260208201905092915050565b600061470582614829565b915061471083614829565b9250827fffffffffffffffffffffffffffffffffffffffffffffffffffffffffffffffff038211156147455761474461494a565b5b828201905092915050565b600061475b82614829565b915061476683614829565b92508261477657614775614979565b5b828204905092915050565b600061478c82614829565b915061479783614829565b9250828210156147aa576147a961494a565b5b828203905092915050565b6000819050919050565b60006147ca82614809565b9050919050565b60008115159050919050565b60007fffffffff0000000000000000000000000000000000000000000000000000000082169050919050565b600073ffffffffffffffffffffffffffffffffffffffff82169050919050565b6000819050919050565b600061483e82614845565b9050919050565b600061485082614809565b9050919050565b6000614863368361395d565b9050919050565b82818337600083830152505050565b60005b8381101561489757808201518184015260208101905061487c565b838111156148a6576000848401525b50505050565b60006148bf6148ba836149fb565b6147b5565b9050919050565b60006148d182614829565b91507fffffffffffffffffffffffffffffffffffffffffffffffffffffffffffffffff8214156149045761490361494a565b5b600182019050919050565b6000819050919050565b600061492482614829565b915061492f83614829565b92508261493f5761493e614979565b5b828206905092915050565b7f4e487b7100000000000000000000000000000000000000000000000000000000600052601160045260246000fd5b7f4e487b7100000000000000000000000000000000000000000000000000000000600052601260045260246000fd5b7f4e487b7100000000000000000000000000000000000000000000000000000000600052604160045260246000fd5b60006149e382546148ac565b9050919050565b6000601f19601f8301169050919050565b60008160001c9050919050565b614a11816147bf565b8114614a1c57600080fd5b50565b614a28816147d1565b8114614a3357600080fd5b50565b614a3f81614829565b8114614a4a57600080fd5b5056fea2646970667358221220f163baabfde284de22d802768fdadea3661cfa1b93a762e2440fd49cae86395064736f6c63430008000033",
  "immutableReferences": {},
  "source": "// SPDX-License-Identifier: MIT\n\npragma solidity ^0.8.0;\n\nimport \"./verify/IVerifier.sol\";\nimport \"./merkle-tree/MerkleTree.sol\";\n\nimport \"./ierc20.sol\";\n\ncontract ZKSenderShield is MerkleTree {\n\n\n          enum FunctionNames { vault, send, unVault, joinCommitments, splitCommitments }\n\n          IVerifier private verifier;\n\n          mapping(uint256 => uint256[]) public vks; // indexed to by an enum uint(FunctionNames)\n\n        struct BackupDataElement {\n          string varName;\n          uint256[] cipherText;\n          uint256 ephPublicKey;\n      } \n\n          event EncryptedBackupData(BackupDataElement[] encPreimages); \n          \n\n          uint256 public newNullifierRoot;\n\n          mapping(uint256 => uint256) public commitmentRoots;\n\n          uint256 public latestRoot;\n\n          mapping(address => uint256) public zkpPublicKeys;\n\n          struct Inputs {\n            uint nullifierRoot; \n              uint latestNullifierRoot; \n              uint[] newNullifiers;\n                  \n\t\t\t\t\t\tuint commitmentRoot;\n\t\t\t\t\t\tuint[] newCommitments;\n\t\t\t\t\t\tuint[] customInputs;\n          }\n\n\n        function registerZKPPublicKey(uint256 pk) external {\n      \t\tzkpPublicKeys[msg.sender] = pk;\n      \t}\n        \n\n\n        function verify(\n      \t\tuint256[] memory proof,\n      \t\tuint256 functionId,\n      \t\tInputs memory _inputs\n      \t) private {\n        \n          uint[] memory customInputs = _inputs.customInputs;\n\n          uint[] memory newNullifiers = _inputs.newNullifiers;\n\n          uint[] memory newCommitments = _inputs.newCommitments;\n\n          require(commitmentRoots[_inputs.commitmentRoot] == _inputs.commitmentRoot, \"Input commitmentRoot does not exist.\");\n\n            uint256[] memory inputs = new uint256[](customInputs.length + newNullifiers.length + (newNullifiers.length > 0 ? 3 : 0) + newCommitments.length);\n          \n          if (functionId == uint(FunctionNames.vault)) {\n            uint k = 0;\n            \n            inputs[k++] = customInputs[0];\n            inputs[k++] = newCommitments[0];\n            inputs[k++] = 1;\n            \n          }\n\n          if (functionId == uint(FunctionNames.send)) {\n            uint k = 0;\n             \n            require(newNullifierRoot == _inputs.nullifierRoot, \"Input NullifierRoot does not exist.\");\n            inputs[k++] = _inputs.nullifierRoot;\n            inputs[k++] = _inputs.latestNullifierRoot;\n            inputs[k++] = newNullifiers[0];\n            inputs[k++] = newNullifiers[1];\n            inputs[k++] = _inputs.commitmentRoot;\n            inputs[k++] = newCommitments[0];\n            inputs[k++] = newCommitments[1];\n            inputs[k++] = 1;\n            \n          }\n\n          if (functionId == uint(FunctionNames.unVault)) {\n            uint k = 0;\n             \n            require(newNullifierRoot == _inputs.nullifierRoot, \"Input NullifierRoot does not exist.\");\n            inputs[k++] = customInputs[0];\n            inputs[k++] = _inputs.nullifierRoot;\n            inputs[k++] = _inputs.latestNullifierRoot;\n            inputs[k++] = newNullifiers[0];\n            inputs[k++] = newNullifiers[1];\n            inputs[k++] = _inputs.commitmentRoot;\n            inputs[k++] = newCommitments[0];\n            inputs[k++] = 1;\n            \n          }\n\n\n       if (functionId == uint(FunctionNames.joinCommitments)) {\n\n          \n        require(newNullifierRoot == _inputs.nullifierRoot, \"Input NullifierRoot does not exist.\");\n\n         uint k = 0;\n\n         inputs[k++] = _inputs.nullifierRoot;\n         inputs[k++] = _inputs.latestNullifierRoot;\n         inputs[k++] = newNullifiers[0];\n         inputs[k++] = newNullifiers[1];\n         inputs[k++] = _inputs.commitmentRoot;\n         inputs[k++] = newCommitments[0];\n         inputs[k++] = 1;\n              \n       }\n         \n         if (functionId == uint(FunctionNames.splitCommitments)) {\n\n          \n          require(newNullifierRoot == _inputs.nullifierRoot, \"Input NullifierRoot does not exist.\");\n\n           uint k = 0;\n\n           inputs[k++] = _inputs.nullifierRoot;\n           inputs[k++] = _inputs.latestNullifierRoot;\n           inputs[k++] = newNullifiers[0];\n           inputs[k++] = _inputs.commitmentRoot;\n           inputs[k++] = newCommitments[0];\n           inputs[k++] = newCommitments[1];\n           inputs[k++] = 1;\n                \n         }\n          \n          bool result = verifier.verify(proof, inputs, vks[functionId]);\n\n          require(result, \"The proof has not been verified by the contract\");\n\n          if (newCommitments.length > 0) {\n      \t\t\tlatestRoot = insertLeaves(newCommitments);\n      \t\t\tcommitmentRoots[latestRoot] = latestRoot;\n      \t\t}\n\n       if (newNullifiers.length > 0) {\n        newNullifierRoot = _inputs.latestNullifierRoot;\n      }\n        }\n\n           function joinCommitments(uint256 nullifierRoot, uint256 latestNullifierRoot, uint256[] calldata newNullifiers,  uint256 commitmentRoot, uint256[] calldata newCommitments, uint256[] calldata proof) public {\n\n            Inputs memory inputs;\n\n            inputs.customInputs = new uint[](1);\n        \t  inputs.customInputs[0] = 1;\n\n            inputs.nullifierRoot = nullifierRoot;\n\n            inputs.latestNullifierRoot = latestNullifierRoot;\n\n            inputs.newNullifiers = newNullifiers;\n\n            inputs.commitmentRoot = commitmentRoot;\n\n            inputs.newCommitments = newCommitments;\n\n            verify(proof, uint(FunctionNames.joinCommitments), inputs);\n        }\n        \n        function splitCommitments(uint256 nullifierRoot, uint256 latestNullifierRoot, uint256[] calldata newNullifiers,  uint256 commitmentRoot, uint256[] calldata newCommitments, uint256[] calldata proof) public {\n\n          Inputs memory inputs;\n\n          inputs.customInputs = new uint[](1);\n          inputs.customInputs[0] = 1;\n\n          inputs.nullifierRoot = nullifierRoot;\n\n          inputs.latestNullifierRoot = latestNullifierRoot;\n\n          inputs.newNullifiers = newNullifiers;\n\n          inputs.commitmentRoot = commitmentRoot;\n\n          inputs.newCommitments = newCommitments;\n\n          verify(proof, uint(FunctionNames.splitCommitments), inputs);\n      }\n\n\n        IERC20 public token;\n\n\n        uint256 public reserve;\n\n\n\n\n      constructor  (address _token, address verifierAddress, uint256[][] memory vk)   {\n\n         verifier = IVerifier(verifierAddress);\n    \t\t  for (uint i = 0; i < vk.length; i++) {\n    \t\t\t  vks[i] = vk[i];\n    \t\t  }\n          newNullifierRoot = Initial_NullifierRoot;\ntoken = IERC20(_token);\n        \n      }\n\n\n      function vault (uint256 amountIn, Inputs calldata inputs, uint256[] calldata proof, BackupDataElement[] memory BackupData) public  {\n\n        \n          Inputs memory updatedInputs = inputs;\n          updatedInputs.customInputs = new uint[](2);\n        \tupdatedInputs.customInputs[0] = amountIn;\nupdatedInputs.customInputs[1] = 1;\n           verify(proof, uint(FunctionNames.vault), updatedInputs);\n\n            // this seems silly (it is) but its the only way to get the event to emit properly\n            emit EncryptedBackupData(BackupData);\nrequire(amountIn > 0, \"Amount must be greater than 0\");\nrequire(token.transferFrom(msg.sender, address(this), amountIn), \"Transfer failed\");\n\nreserve += amountIn;\n        \n      }\n\n\n      function send (Inputs calldata inputs, uint256[] calldata proof, BackupDataElement[] memory BackupData) public  {\n\n         verify(proof, uint(FunctionNames.send), inputs);\n\n            // this seems silly (it is) but its the only way to get the event to emit properly\n            emit EncryptedBackupData(BackupData);\n\n\n        \n      }\n\n\n      function unVault (uint256 amountOut, Inputs calldata inputs, uint256[] calldata proof, BackupDataElement[] memory BackupData) public  {\n\n        \n          Inputs memory updatedInputs = inputs;\n          updatedInputs.customInputs = new uint[](2);\n        \tupdatedInputs.customInputs[0] = amountOut;\nupdatedInputs.customInputs[1] = 1;\n           verify(proof, uint(FunctionNames.unVault), updatedInputs);\n\n            // this seems silly (it is) but its the only way to get the event to emit properly\n            emit EncryptedBackupData(BackupData);\nrequire(reserve >= amountOut, \"WTF, IT SHOULD NEVER HAPPEN! WE'VE BEEN HACKED!\");\nrequire(token.transfer(msg.sender, amountOut), \"Transfer failed\");\n\nreserve -= amountOut;\n        \n      }\n}",
  "sourcePath": "/app/contracts/ZKSenderShield.sol",
  "compiler": {
    "name": "solc",
    "version": "0.8.0+commit.c7dfd78e.Emscripten.clang"
  },
  "schemaVersion": "3.3.3",
  "updatedAt": "2024-07-23T23:13:05.792Z",
  "devdoc": {
    "kind": "dev",
    "methods": {
      "getFrontierSlot(uint256)": {
        "params": {
          "leafIndex": "- the index of the leaf being added"
        },
        "returns": {
          "slot": "- the index of the frontier (or 'storage slot') into which we will next store a nodeValue"
        }
      },
      "insertLeaf(uint256)": {
        "params": {
          "leafValue": "- the value of the leaf being inserted."
        },
        "returns": {
          "root": "- the root of the merkle tree, after the insert."
        }
      },
      "insertLeaves(uint256[])": {
        "params": {
          "leafValues": "- the values of the leaves being inserted."
        },
        "returns": {
          "root": "- the root of the merkle tree, after all the inserts."
        }
      }
    },
    "version": 1
  },
  "userdoc": {
    "events": {
      "NewLeaf(uint256,uint256,uint256)": {
        "notice": "These events are what the merkle-tree microservice's filters will listen for."
      }
    },
    "kind": "user",
    "methods": {
      "getFrontierSlot(uint256)": {
        "notice": "Get the index of the frontier (or 'storage slot') into which we will next store a nodeValue (based on the leafIndex currently being inserted). See the top-level README for a detailed explanation."
      },
      "insertLeaf(uint256)": {
        "notice": "Insert a leaf into the Merkle Tree, update the root, and update any values in the (persistently stored) frontier."
      },
      "insertLeaves(uint256[])": {
        "notice": "Insert multiple leaves into the Merkle Tree, and then update the root, and update any values in the (persistently stored) frontier."
      }
    },
    "version": 1
  }
}