{
  "contractName": "MerkleTree",
  "abi": [
    {
      "anonymous": false,
      "inputs": [
        {
          "indexed": false,
          "internalType": "uint256",
          "name": "leafIndex",
          "type": "uint256"
        },
        {
          "indexed": false,
          "internalType": "uint256",
          "name": "leafValue",
          "type": "uint256"
        },
        {
          "indexed": false,
          "internalType": "uint256",
          "name": "root",
          "type": "uint256"
        }
      ],
      "name": "NewLeaf",
      "type": "event"
    },
    {
      "anonymous": false,
      "inputs": [
        {
          "indexed": false,
          "internalType": "uint256",
          "name": "minLeafIndex",
          "type": "uint256"
        },
        {
          "indexed": false,
          "internalType": "uint256[]",
          "name": "leafValues",
          "type": "uint256[]"
        },
        {
          "indexed": false,
          "internalType": "uint256",
          "name": "root",
          "type": "uint256"
        }
      ],
      "name": "NewLeaves",
      "type": "event"
    },
    {
      "inputs": [
        {
          "internalType": "uint256",
          "name": "in_x",
          "type": "uint256"
        },
        {
          "internalType": "uint256",
          "name": "in_k",
          "type": "uint256"
        }
      ],
      "name": "Encipher",
      "outputs": [
        {
          "internalType": "uint256",
          "name": "out_x",
          "type": "uint256"
        }
      ],
      "stateMutability": "pure",
      "type": "function"
    },
    {
      "inputs": [
        {
          "internalType": "uint256[]",
          "name": "in_msgs",
          "type": "uint256[]"
        },
        {
          "internalType": "uint256",
          "name": "in_key",
          "type": "uint256"
        }
      ],
      "name": "Hash",
      "outputs": [
        {
          "internalType": "uint256",
          "name": "",
          "type": "uint256"
        }
      ],
      "stateMutability": "pure",
      "type": "function"
    },
    {
      "inputs": [],
      "name": "Initial_NullifierRoot",
      "outputs": [
        {
          "internalType": "uint256",
          "name": "",
          "type": "uint256"
        }
      ],
      "stateMutability": "view",
      "type": "function"
    },
    {
      "inputs": [
        {
          "internalType": "uint256",
          "name": "",
          "type": "uint256"
        }
      ],
      "name": "frontier",
      "outputs": [
        {
          "internalType": "uint256",
          "name": "",
          "type": "uint256"
        }
      ],
      "stateMutability": "view",
      "type": "function"
    },
    {
      "inputs": [],
      "name": "leafCount",
      "outputs": [
        {
          "internalType": "uint256",
          "name": "",
          "type": "uint256"
        }
      ],
      "stateMutability": "view",
      "type": "function"
    },
    {
      "inputs": [
        {
          "internalType": "uint256[]",
          "name": "in_msgs",
          "type": "uint256[]"
        }
      ],
      "name": "mimcHash",
      "outputs": [
        {
          "internalType": "uint256",
          "name": "",
          "type": "uint256"
        }
      ],
      "stateMutability": "pure",
      "type": "function"
    },
    {
      "inputs": [],
      "name": "treeHeight",
      "outputs": [
        {
          "internalType": "uint256",
          "name": "",
          "type": "uint256"
        }
      ],
      "stateMutability": "view",
      "type": "function"
    },
    {
      "inputs": [],
      "name": "treeWidth",
      "outputs": [
        {
          "internalType": "uint256",
          "name": "",
          "type": "uint256"
        }
      ],
      "stateMutability": "view",
      "type": "function"
    },
    {
      "inputs": [],
      "name": "zero",
      "outputs": [
        {
          "internalType": "uint256",
          "name": "",
          "type": "uint256"
        }
      ],
      "stateMutability": "view",
      "type": "function"
    },
    {
      "inputs": [
        {
          "internalType": "uint256",
          "name": "leafIndex",
          "type": "uint256"
        }
      ],
      "name": "getFrontierSlot",
      "outputs": [
        {
          "internalType": "uint256",
          "name": "slot",
          "type": "uint256"
        }
      ],
      "stateMutability": "pure",
      "type": "function"
    },
    {
      "inputs": [
        {
          "internalType": "uint256",
          "name": "leafValue",
          "type": "uint256"
        }
      ],
      "name": "insertLeaf",
      "outputs": [
        {
          "internalType": "uint256",
          "name": "root",
          "type": "uint256"
        }
      ],
      "stateMutability": "nonpayable",
      "type": "function"
    },
    {
      "inputs": [
        {
          "internalType": "uint256[]",
          "name": "leafValues",
          "type": "uint256[]"
        }
      ],
      "name": "insertLeaves",
      "outputs": [
        {
          "internalType": "uint256",
          "name": "root",
          "type": "uint256"
        }
      ],
      "stateMutability": "nonpayable",
      "type": "function"
    }
  ],
  "bytecode": "0x608060405260008055602060015560015460026200001e919062000090565b6002553480156200002e57600080fd5b5062000213565b6000808291508390505b600185111562000087578086048111156200005f576200005e620001d7565b5b60018516156200006f5780820291505b80810290506200007f8562000206565b94506200003f565b94509492505050565b60006200009d82620001cd565b9150620000aa83620001cd565b9250620000d97fffffffffffffffffffffffffffffffffffffffffffffffffffffffffffffffff8484620000e1565b905092915050565b600082620000f35760019050620001c6565b81620001035760009050620001c6565b81600181146200011c576002811462000127576200015d565b6001915050620001c6565b60ff8411156200013c576200013b620001d7565b5b8360020a915084821115620001565762000155620001d7565b5b50620001c6565b5060208310610133831016604e8410600b8410161715620001975782820a905083811115620001915762000190620001d7565b5b620001c6565b620001a6848484600162000035565b92509050818404811115620001c057620001bf620001d7565b5b81810290505b9392505050565b6000819050919050565b7f4e487b7100000000000000000000000000000000000000000000000000000000600052601160045260246000fd5b60008160011c9050919050565b611a9980620002236000396000f3fe608060405234801561001057600080fd5b50600436106100b45760003560e01c80636e0c3fee116100715780636e0c3fee146101a357806376c601b1146101d357806396d8d820146101f1578063b720243414610221578063bc1b392d14610251578063cae8510d1461026f576100b4565b806301e3e915146100b957806305bb4c40146100d75780630fa16e38146100f5578063176764b5146101255780632a3a81831461015557806330e69fc314610185575b600080fd5b6100c161029f565b6040516100ce9190611713565b60405180910390f35b6100df6102a5565b6040516100ec9190611713565b60405180910390f35b61010f600480360381019061010a919061150e565b6102c9565b60405161011c9190611713565b60405180910390f35b61013f600480360381019061013a91906114cd565b610315565b60405161014c9190611713565b60405180910390f35b61016f600480360381019061016a9190611562565b610c62565b60405161017c9190611713565b60405180910390f35b61018d610cf2565b60405161019a9190611713565b60405180910390f35b6101bd60048036038101906101b89190611562565b610cf8565b6040516101ca9190611713565b60405180910390f35b6101db610d13565b6040516101e89190611713565b60405180910390f35b61020b6004803603810190610206919061158b565b610d19565b6040516102189190611713565b60405180910390f35b61023b60048036038101906102369190611562565b610d65565b6040516102489190611713565b60405180910390f35b61025961126a565b6040516102669190611713565b60405180910390f35b610289600480360381019061028491906114cd565b611270565b6040516102969190611713565b60405180910390f35b60015481565b7f2f68a1c58e257e42a17a6c61dff5551ed560b9922ab119d5ac8e184c9734ead981565b600080636d696d6360e01b905061030c8484836040516020016102ec91906116d8565b6040516020818303038152906040528051906020012060001c605b611284565b91505092915050565b6000808251905060035460025411610362576040517f08c379a0000000000000000000000000000000000000000000000000000000008152600401610359906116f3565b60405180910390fd5b60035460025461037291906118d1565b8111156103d257600060035460025461038b91906118d1565b8261039691906118d1565b905060005b818110156103bd576001855103855280806103b59061193b565b91505061039b565b506003546002546103ce91906118d1565b9150505b6000806000806000600267ffffffffffffffff81111561041b577f4e487b7100000000000000000000000000000000000000000000000000000000600052604160045260246000fd5b6040519080825280602002602001820160405280156104495781602001602082028036833780820191505090505b5090506000600167ffffffffffffffff81111561048f577f4e487b7100000000000000000000000000000000000000000000000000000000600052604160045260246000fd5b6040519080825280602002602001820160405280156104bd5781602001602082028036833780820191505090505b509050600060035490505b876003546104d6919061184a565b8110156108ee5789600354826104ec91906118d1565b81518110610523577f4e487b7100000000000000000000000000000000000000000000000000000000600052603260045260246000fd5b6020026020010151935060016002548261053d919061184a565b61054791906118d1565b955061055281610c62565b965060008714156105a2578360048860218110610598577f4e487b7100000000000000000000000000000000000000000000000000000000600052603260045260246000fd5b01819055506108db565b6000600190505b8781116108995760006002886105bf919061198e565b14156107505760046001826105d491906118d1565b6021811061060b577f4e487b7100000000000000000000000000000000000000000000000000000000600052603260045260246000fd5b015484600081518110610647577f4e487b7100000000000000000000000000000000000000000000000000000000600052603260045260246000fd5b602002602001018181525050848460018151811061068e577f4e487b7100000000000000000000000000000000000000000000000000000000600052603260045260246000fd5b6020026020010181815250506106a384611270565b836000815181106106dd577f4e487b7100000000000000000000000000000000000000000000000000000000600052603260045260246000fd5b60200260200101818152505082600081518110610723577f4e487b7100000000000000000000000000000000000000000000000000000000600052603260045260246000fd5b60200260200101519450869550600260018861073f91906118d1565b61074991906118a0565b9650610886565b848460008151811061078b577f4e487b7100000000000000000000000000000000000000000000000000000000600052603260045260246000fd5b602002602001018181525050600054846001815181106107d4577f4e487b7100000000000000000000000000000000000000000000000000000000600052603260045260246000fd5b6020026020010181815250506107e984611270565b83600081518110610823577f4e487b7100000000000000000000000000000000000000000000000000000000600052603260045260246000fd5b60200260200101818152505082600081518110610869577f4e487b7100000000000000000000000000000000000000000000000000000000600052603260045260246000fd5b6020026020010151945086955060028761088391906118a0565b96505b80806108919061193b565b9150506105a9565b5083600488602181106108d5577f4e487b7100000000000000000000000000000000000000000000000000000000600052603260045260246000fd5b01819055505b80806108e69061193b565b9150506104c8565b5060006001876108fe919061184a565b90505b6001548111610bf3576000600287610919919061198e565b1415610aaa57600460018261092e91906118d1565b60218110610965577f4e487b7100000000000000000000000000000000000000000000000000000000600052603260045260246000fd5b0154836000815181106109a1577f4e487b7100000000000000000000000000000000000000000000000000000000600052603260045260246000fd5b60200260200101818152505083836001815181106109e8577f4e487b7100000000000000000000000000000000000000000000000000000000600052603260045260246000fd5b6020026020010181815250506109fd83611270565b82600081518110610a37577f4e487b7100000000000000000000000000000000000000000000000000000000600052603260045260246000fd5b60200260200101818152505081600081518110610a7d577f4e487b7100000000000000000000000000000000000000000000000000000000600052603260045260246000fd5b602002602001015193508594506002600187610a9991906118d1565b610aa391906118a0565b9550610be0565b8383600081518110610ae5577f4e487b7100000000000000000000000000000000000000000000000000000000600052603260045260246000fd5b60200260200101818152505060005483600181518110610b2e577f4e487b7100000000000000000000000000000000000000000000000000000000600052603260045260246000fd5b602002602001018181525050610b4383611270565b82600081518110610b7d577f4e487b7100000000000000000000000000000000000000000000000000000000600052603260045260246000fd5b60200260200101818152505081600081518110610bc3577f4e487b7100000000000000000000000000000000000000000000000000000000600052603260045260246000fd5b60200260200101519350859450600286610bdd91906118a0565b95505b8080610beb9061193b565b915050610901565b508297508760001b60001c97507f39623a9bbcaf7943af164a1aee0fd809f7101d4d8c7727239dace363779587db6003548a8a604051610c359392919061172e565b60405180910390a18660036000828254610c4f919061184a565b9250508190555050505050505050919050565b60006001600283610c73919061198e565b1415610ced576000600190506000600290506000600182901b90505b6000841415610ce95760008183600188610ca9919061184a565b610cb391906118d1565b610cbd919061198e565b1415610ccb57829350610ce4565b809150600181901b90508280610ce09061193b565b9350505b610c8f565b5050505b919050565b60035481565b60048160218110610d0857600080fd5b016000915090505481565b60025481565b600080636d696d6360e01b9050610d5c848483604051602001610d3c91906116d8565b6040516020818303038152906040528051906020012060001c605b611396565b91505092915050565b600060035460025411610dad576040517f08c379a0000000000000000000000000000000000000000000000000000000008152600401610da4906116f3565b60405180910390fd5b6000610dba600354610c62565b905060006001600254600354610dd0919061184a565b610dda91906118d1565b90506000808590506000600267ffffffffffffffff811115610e25577f4e487b7100000000000000000000000000000000000000000000000000000000600052604160045260246000fd5b604051908082528060200260200182016040528015610e535781602001602082028036833780820191505090505b5090506000600167ffffffffffffffff811115610e99577f4e487b7100000000000000000000000000000000000000000000000000000000600052604160045260246000fd5b604051908082528060200260200182016040528015610ec75781602001602082028036833780820191505090505b50905060005b6001548110156111fd5786811415610f20578360048860218110610f1a577f4e487b7100000000000000000000000000000000000000000000000000000000600052603260045260246000fd5b01819055505b6000600287610f2f919061198e565b14156110b45760048160218110610f6f577f4e487b7100000000000000000000000000000000000000000000000000000000600052603260045260246000fd5b015483600081518110610fab577f4e487b7100000000000000000000000000000000000000000000000000000000600052603260045260246000fd5b6020026020010181815250508383600181518110610ff2577f4e487b7100000000000000000000000000000000000000000000000000000000600052603260045260246000fd5b60200260200101818152505061100783611270565b82600081518110611041577f4e487b7100000000000000000000000000000000000000000000000000000000600052603260045260246000fd5b60200260200101818152505081600081518110611087577f4e487b7100000000000000000000000000000000000000000000000000000000600052603260045260246000fd5b6020026020010151935085945060026001876110a391906118d1565b6110ad91906118a0565b95506111ea565b83836000815181106110ef577f4e487b7100000000000000000000000000000000000000000000000000000000600052603260045260246000fd5b60200260200101818152505060005483600181518110611138577f4e487b7100000000000000000000000000000000000000000000000000000000600052603260045260246000fd5b60200260200101818152505061114d83611270565b82600081518110611187577f4e487b7100000000000000000000000000000000000000000000000000000000600052603260045260246000fd5b602002602001018181525050816000815181106111cd577f4e487b7100000000000000000000000000000000000000000000000000000000600052603260045260246000fd5b602002602001015193508594506002866111e791906118a0565b95505b80806111f59061193b565b915050610ecd565b508296508660001b60001c96507f522933b35bbca3f00d1a1ae17c09663f9286c4d868dc335a0ca99a970bc08784600354898960405161123f9392919061176c565b60405180910390a16003600081548092919061125a9061193b565b9190505550505050505050919050565b60005481565b600061127d8260006102c9565b9050919050565b60008084905060007f30644e72e131a029b85045b68181585d2833e84879b9709143e1f593f0000001905060005b875181101561138857816113088983815181106112f8577f4e487b7100000000000000000000000000000000000000000000000000000000600052603260045260246000fd5b6020026020010151858989611396565b838a8481518110611342577f4e487b7100000000000000000000000000000000000000000000000000000000600052603260045260246000fd5b6020026020010151611354919061198e565b8561135f919061184a565b611369919061184a565b611373919061198e565b925080806113809061193b565b9150506112b2565b829350505050949350505050565b600060018210156113a657600080fd5b604051602081016040528381527f30644e72e131a029b85045b68181585d2833e84879b9709143e1f593f0000001600080855b600081111561140f5760208520855283898587518d080892508383840991508383858685860985090999506001810390506113d9565b5082888a08945050505050949350505050565b6000611435611430846117d4565b6117a3565b9050808382526020820190508285602086028201111561145457600080fd5b60005b85811015611484578161146a88826114b8565b845260208401935060208301925050600181019050611457565b5050509392505050565b600082601f83011261149f57600080fd5b81356114af848260208601611422565b91505092915050565b6000813590506114c781611a4c565b92915050565b6000602082840312156114df57600080fd5b600082013567ffffffffffffffff8111156114f957600080fd5b6115058482850161148e565b91505092915050565b6000806040838503121561152157600080fd5b600083013567ffffffffffffffff81111561153b57600080fd5b6115478582860161148e565b9250506020611558858286016114b8565b9150509250929050565b60006020828403121561157457600080fd5b6000611582848285016114b8565b91505092915050565b6000806040838503121561159e57600080fd5b60006115ac858286016114b8565b92505060206115bd858286016114b8565b9150509250929050565b60006115d383836116ba565b60208301905092915050565b60006115ea82611810565b6115f48185611828565b93506115ff83611800565b8060005b8381101561163057815161161788826115c7565b97506116228361181b565b925050600181019050611603565b5085935050505092915050565b61164e61164982611905565b611984565b82525050565b6000611661602383611839565b91507f5468657265206973206e6f207370616365206c65667420696e2074686520747260008301527f65652e00000000000000000000000000000000000000000000000000000000006020830152604082019050919050565b6116c381611931565b82525050565b6116d281611931565b82525050565b60006116e4828461163d565b60048201915081905092915050565b6000602082019050818103600083015261170c81611654565b9050919050565b600060208201905061172860008301846116c9565b92915050565b600060608201905061174360008301866116c9565b818103602083015261175581856115df565b905061176460408301846116c9565b949350505050565b600060608201905061178160008301866116c9565b61178e60208301856116c9565b61179b60408301846116c9565b949350505050565b6000604051905081810181811067ffffffffffffffff821117156117ca576117c9611a1d565b5b8060405250919050565b600067ffffffffffffffff8211156117ef576117ee611a1d565b5b602082029050602081019050919050565b6000819050602082019050919050565b600081519050919050565b6000602082019050919050565b600082825260208201905092915050565b600082825260208201905092915050565b600061185582611931565b915061186083611931565b9250827fffffffffffffffffffffffffffffffffffffffffffffffffffffffffffffffff03821115611895576118946119bf565b5b828201905092915050565b60006118ab82611931565b91506118b683611931565b9250826118c6576118c56119ee565b5b828204905092915050565b60006118dc82611931565b91506118e783611931565b9250828210156118fa576118f96119bf565b5b828203905092915050565b60007fffffffff0000000000000000000000000000000000000000000000000000000082169050919050565b6000819050919050565b600061194682611931565b91507fffffffffffffffffffffffffffffffffffffffffffffffffffffffffffffffff821415611979576119786119bf565b5b600182019050919050565b6000819050919050565b600061199982611931565b91506119a483611931565b9250826119b4576119b36119ee565b5b828206905092915050565b7f4e487b7100000000000000000000000000000000000000000000000000000000600052601160045260246000fd5b7f4e487b7100000000000000000000000000000000000000000000000000000000600052601260045260246000fd5b7f4e487b7100000000000000000000000000000000000000000000000000000000600052604160045260246000fd5b611a5581611931565b8114611a6057600080fd5b5056fea264697066735822122005a599aa0fc4d30e31bd86c949181bf9519dc21ecb05d9905e2c50058ebe01ff64736f6c63430008000033",
  "immutableReferences": {},
  "source": "/**\n// SPDX-License-Identifier: CC0-1\nA base contract which handles Merkle Tree inserts (and consequent updates to the root and 'frontier' (see below)).\nThe intention is for other 'derived' contracts to import this contract, and for those derived contracts to manage permissions to actually call the insertLeaf/insertleaves functions of this base contract.\n\n@Author iAmMichaelConnor\n*/\n\npragma solidity ^0.8.0;\n\nimport \"./MiMC.sol\"; // import contract with MiMC function\n// import \"../access/Ownable.sol\";\n\ncontract MerkleTree is MiMC {\n\n    /*\n    @notice Explanation of the Merkle Tree in this contract:\n    This is an append-only merkle tree; populated from left to right.\n    We do not store all of the merkle tree's nodes. We only store the right-most 'frontier' of nodes required to calculate the new root when the next new leaf value is added.\n\n                      TREE (not stored)                       FRONTIER (stored)\n\n                                 0                                     ?\n                          /             \\\n                   1                             2                     ?\n               /       \\                     /       \\\n           3             4               5               6             ?\n         /   \\         /   \\           /   \\           /    \\\n       7       8      9      10      11      12      13      14        ?\n     /  \\    /  \\   /  \\    /  \\    /  \\    /  \\    /  \\    /  \\\n    15  16  17 18  19  20  21  22  23  24  25  26  27  28  29  30      ?\n\n    level  row  width  start#     end#\n      4     0   2^0=1   w=0     2^1-1=0\n      3     1   2^1=2   w=1     2^2-1=2\n      2     2   2^2=4   w=3     2^3-1=6\n      1     3   2^3=8   w=7     2^4-1=14\n      0     4   2^4=16  w=15    2^5-1=30\n\n    height = 4\n    w = width = 2 ** height = 2^4 = 16\n    #nodes = (2 ** (height + 1)) - 1 = 2^5-1 = 31\n\n    */\n\n    /**\n    These events are what the merkle-tree microservice's filters will listen for.\n    */\n    event NewLeaf(uint leafIndex, uint leafValue, uint root);\n    event NewLeaves(uint minLeafIndex, uint[] leafValues, uint root);\n\n    // event Output(uint[] input, uint[] output, uint prevNodeIndex, uint nodeIndex); // for debugging only\n\n    uint public zero = 0;\n    uint public treeHeight = 32; //\n    uint public treeWidth = 2 ** treeHeight;\n    uint public leafCount; // the number of leaves currently in the tree\n\n    /**\n    @dev\n    Whilst ordinarily, we'd work solely with bytes32, we need to truncate nodeValues up the tree. Therefore, we need to declare certain variables with lower byte-lengths:\n    LEAF_HASHLENGTH = 32 bytes;\n    NODE_HASHLENGTH = 27 bytes;\n    5 byte difference * 8 bits per byte = 40 bit shift to truncate hashlengths.\n    27 bytes * 2 inputs to sha() = 54 byte input to sha(). 54 = 0x36.\n    If in future you want to change the truncation values, search for '27', '40' and '0x36'.\n    */\n\n    uint[33] public frontier; //  = new uint[](treeHeight + 1); // the right-most 'frontier' of nodes required to calculate the new root when the next new leaf value is added.\n\n    /**\n    @notice Get the index of the frontier (or 'storage slot') into which we will next store a nodeValue (based on the leafIndex currently being inserted). See the top-level README for a detailed explanation.\n    @param leafIndex - the index of the leaf being added\n    @return slot - the index of the frontier (or 'storage slot') into which we will next store a nodeValue\n    */\n    function getFrontierSlot(uint leafIndex) public pure returns (uint slot) {\n        slot = 0;\n        if ( leafIndex % 2 == 1 ) {\n            uint exp1 = 1;\n            uint pow1 = 2;\n            uint pow2 = pow1 << 1;\n            while (slot == 0) {\n                if ( (leafIndex + 1 - pow1) % pow2 == 0 ) {\n                    slot = exp1;\n                } else {\n                    pow1 = pow2;\n                    pow2 = pow2 << 1;\n                    exp1++;\n                }\n            }\n        }\n    }\n\n    /**\n    @notice Insert a leaf into the Merkle Tree, update the root, and update any values in the (persistently stored) frontier.\n    @param leafValue - the value of the leaf being inserted.\n    @return root - the root of the merkle tree, after the insert.\n    */\n    function insertLeaf(uint leafValue) public returns (uint root) {\n\n        // check that space exists in the tree:\n        require(treeWidth > leafCount, \"There is no space left in the tree.\");\n\n        uint slot = getFrontierSlot(leafCount);\n        uint nodeIndex = leafCount + treeWidth - 1;\n        uint prevNodeIndex;\n        uint nodeValue = leafValue; // nodeValue is the hash, which iteratively gets overridden to the top of the tree until it becomes the root.\n\n        uint[] memory input = new uint[](2); //input of the hash fuction\n        uint[] memory output = new uint[](1); // output of the hash function\n\n        for (uint level = 0; level < treeHeight; level++) {\n\n            if (level == slot) frontier[slot] = nodeValue;\n\n            if (nodeIndex % 2 == 0) {\n                // even nodeIndex\n                input[0] = frontier[level];\n                input[1] = nodeValue;\n\n                output[0] = mimcHash(input); // mimc hash of concatenation of each node\n                nodeValue = output[0]; // the parentValue, but will become the nodeValue of the next level\n                prevNodeIndex = nodeIndex;\n                nodeIndex = (nodeIndex - 1) / 2; // move one row up the tree\n                // emit Output(input, output, prevNodeIndex, nodeIndex); // for debugging only\n            } else {\n                // odd nodeIndex\n                input[0] = nodeValue;\n                input[1] = zero;\n\n                output[0] = mimcHash(input); // mimc hash of concatenation of each node\n                nodeValue = output[0]; // the parentValue, but will become the nodeValue of the next level\n                prevNodeIndex = nodeIndex;\n                nodeIndex = nodeIndex / 2; // move one row up the tree\n                // emit Output(input, output, prevNodeIndex, nodeIndex); // for debugging only\n            }\n        }\n\n        root = nodeValue;\n        root = uint(bytes32(root));\n\n        emit NewLeaf(leafCount, leafValue, root); // this event is what the merkle-tree microservice's filter will listen for.\n\n        leafCount++; // the incrememnting of leafCount costs us 20k for the first leaf, and 5k thereafter\n\n        return root; //the root of the tree\n    }\n\n    /**\n    @notice Insert multiple leaves into the Merkle Tree, and then update the root, and update any values in the (persistently stored) frontier.\n    @param leafValues - the values of the leaves being inserted.\n    @return root - the root of the merkle tree, after all the inserts.\n    */\n    function insertLeaves(uint[] memory leafValues) public returns (uint root) {\n\n        uint numberOfLeaves = leafValues.length;\n\n        // check that space exists in the tree:\n        require(treeWidth > leafCount, \"There is no space left in the tree.\");\n        if (numberOfLeaves > treeWidth - leafCount) {\n            uint numberOfExcessLeaves = numberOfLeaves - (treeWidth - leafCount);\n            // remove the excess leaves, because we only want to emit those we've added as an event:\n            for (uint xs = 0; xs < numberOfExcessLeaves; xs++) {\n                /*\n                  CAUTION!!! This attempts to succinctly achieve leafValues.pop() on a **memory** dynamic array. Not thoroughly tested!\n                  Credit: https://ethereum.stackexchange.com/a/51897/45916\n                */\n\n                assembly {\n                  mstore(leafValues, sub(mload(leafValues), 1))\n                }\n            }\n            numberOfLeaves = treeWidth - leafCount;\n        }\n\n        uint slot;\n        uint nodeIndex;\n        uint prevNodeIndex;\n        uint nodeValue;\n\n        uint[] memory input = new uint[](2);\n        uint[] memory output = new uint[](1); // the output of the hash\n\n        // consider each new leaf in turn, from left to right:\n        for (uint leafIndex = leafCount; leafIndex < leafCount + numberOfLeaves; leafIndex++) {\n            nodeValue = leafValues[leafIndex - leafCount];\n            nodeIndex = leafIndex + treeWidth - 1; // convert the leafIndex to a nodeIndex\n\n            slot = getFrontierSlot(leafIndex); // determine at which level we will next need to store a nodeValue\n\n            if (slot == 0) {\n                frontier[slot] = nodeValue; // store in frontier\n                continue;\n            }\n\n            // hash up to the level whose nodeValue we'll store in the frontier slot:\n            for (uint level = 1; level <= slot; level++) {\n                if (nodeIndex % 2 == 0) {\n                    // even nodeIndex\n                    input[0] = frontier[level - 1]; //replace with push?\n                    input[1] = nodeValue;\n                    output[0] = mimcHash(input); // mimc hash of concatenation of each node\n\n                    nodeValue = output[0]; // the parentValue, but will become the nodeValue of the next level\n                    prevNodeIndex = nodeIndex;\n                    nodeIndex = (nodeIndex - 1) / 2; // move one row up the tree\n                    // emit Output(input, output, prevNodeIndex, nodeIndex); // for debugging only\n                } else {\n                    // odd nodeIndex\n                    input[0] = nodeValue;\n                    input[1] = zero;\n                    output[0] = mimcHash(input); // mimc hash of concatenation of each node\n\n                    nodeValue = output[0]; // the parentValue, but will become the nodeValue of the next level\n                    prevNodeIndex = nodeIndex;\n                    nodeIndex = nodeIndex / 2; // the parentIndex, but will become the nodeIndex of the next level\n                    // emit Output(input, output, prevNodeIndex, nodeIndex); // for debugging only\n                }\n            }\n            frontier[slot] = nodeValue; // store in frontier\n        }\n\n        // So far we've added all leaves, and hashed up to a particular level of the tree. We now need to continue hashing from that level until the root:\n        for (uint level = slot + 1; level <= treeHeight; level++) {\n\n            if (nodeIndex % 2 == 0) {\n                // even nodeIndex\n                input[0] = frontier[level - 1];\n                input[1] = nodeValue;\n                output[0] = mimcHash(input); // mimc hash of concatenation of each node\n\n                nodeValue = output[0]; // the parentValue, but will become the nodeValue of the next level\n                prevNodeIndex = nodeIndex;\n                nodeIndex = (nodeIndex - 1) / 2;  // the parentIndex, but will become the nodeIndex of the next level\n                // emit Output(input, output, prevNodeIndex, nodeIndex); // for debugging only\n            } else {\n                // odd nodeIndex\n                input[0] = nodeValue;\n                input[1] = zero;\n                output[0] = mimcHash(input); // mimc hash of concatenation of each node\n\n                nodeValue = output[0]; // the parentValue, but will become the nodeValue of the next level\n                prevNodeIndex = nodeIndex;\n                nodeIndex = nodeIndex / 2;  // the parentIndex, but will become the nodeIndex of the next level\n                // emit Output(input, output, prevNodeIndex, nodeIndex); // for debugging only\n            }\n\n        }\n\n        root = nodeValue;\n        root = uint(bytes32(root));\n\n        emit NewLeaves(leafCount, leafValues, root); // this event is what the merkle-tree microservice's filter will listen for.\n\n        leafCount += numberOfLeaves; // the incrememnting of leafCount costs us 20k for the first leaf, and 5k thereafter\n        return root; //the root of the tree\n    }\n\n    // Intial Root for sparse merkle tree\n    uint256 public constant Initial_NullifierRoot = 21443572485391568159800782191812935835534334817699172242223315142338162256601;\n}\n",
  "sourcePath": "/app/contracts/merkle-tree/MerkleTree.sol",
  "compiler": {
    "name": "solc",
    "version": "0.8.0+commit.c7dfd78e.Emscripten.clang"
  },
  "schemaVersion": "3.3.3",
  "updatedAt": "2024-08-02T19:27:53.610Z",
  "devdoc": {
    "kind": "dev",
    "methods": {
      "getFrontierSlot(uint256)": {
        "params": {
          "leafIndex": "- the index of the leaf being added"
        },
        "returns": {
          "slot": "- the index of the frontier (or 'storage slot') into which we will next store a nodeValue"
        }
      },
      "insertLeaf(uint256)": {
        "params": {
          "leafValue": "- the value of the leaf being inserted."
        },
        "returns": {
          "root": "- the root of the merkle tree, after the insert."
        }
      },
      "insertLeaves(uint256[])": {
        "params": {
          "leafValues": "- the values of the leaves being inserted."
        },
        "returns": {
          "root": "- the root of the merkle tree, after all the inserts."
        }
      }
    },
    "stateVariables": {
      "frontier": {
        "details": "Whilst ordinarily, we'd work solely with bytes32, we need to truncate nodeValues up the tree. Therefore, we need to declare certain variables with lower byte-lengths: LEAF_HASHLENGTH = 32 bytes; NODE_HASHLENGTH = 27 bytes; 5 byte difference * 8 bits per byte = 40 bit shift to truncate hashlengths. 27 bytes * 2 inputs to sha() = 54 byte input to sha(). 54 = 0x36. If in future you want to change the truncation values, search for '27', '40' and '0x36'."
      }
    },
    "version": 1
  },
  "userdoc": {
    "events": {
      "NewLeaf(uint256,uint256,uint256)": {
        "notice": "These events are what the merkle-tree microservice's filters will listen for."
      }
    },
    "kind": "user",
    "methods": {
      "getFrontierSlot(uint256)": {
        "notice": "Get the index of the frontier (or 'storage slot') into which we will next store a nodeValue (based on the leafIndex currently being inserted). See the top-level README for a detailed explanation."
      },
      "insertLeaf(uint256)": {
        "notice": "Insert a leaf into the Merkle Tree, update the root, and update any values in the (persistently stored) frontier."
      },
      "insertLeaves(uint256[])": {
        "notice": "Insert multiple leaves into the Merkle Tree, and then update the root, and update any values in the (persistently stored) frontier."
      }
    },
    "version": 1
  }
}