{
  "contractName": "MiMC",
  "abi": [
    {
      "inputs": [
        {
          "internalType": "uint256",
          "name": "in_x",
          "type": "uint256"
        },
        {
          "internalType": "uint256",
          "name": "in_k",
          "type": "uint256"
        }
      ],
      "name": "Encipher",
      "outputs": [
        {
          "internalType": "uint256",
          "name": "out_x",
          "type": "uint256"
        }
      ],
      "stateMutability": "pure",
      "type": "function"
    },
    {
      "inputs": [
        {
          "internalType": "uint256[]",
          "name": "in_msgs",
          "type": "uint256[]"
        },
        {
          "internalType": "uint256",
          "name": "in_key",
          "type": "uint256"
        }
      ],
      "name": "Hash",
      "outputs": [
        {
          "internalType": "uint256",
          "name": "",
          "type": "uint256"
        }
      ],
      "stateMutability": "pure",
      "type": "function"
    },
    {
      "inputs": [
        {
          "internalType": "uint256[]",
          "name": "in_msgs",
          "type": "uint256[]"
        }
      ],
      "name": "mimcHash",
      "outputs": [
        {
          "internalType": "uint256",
          "name": "",
          "type": "uint256"
        }
      ],
      "stateMutability": "pure",
      "type": "function"
    }
  ],
  "bytecode": "0x608060405234801561001057600080fd5b5061073f806100206000396000f3fe608060405234801561001057600080fd5b50600436106100415760003560e01c80630fa16e381461004657806396d8d82014610076578063cae8510d146100a6575b600080fd5b610060600480360381019061005b919061040c565b6100d6565b60405161006d91906104dd565b60405180910390f35b610090600480360381019061008b9190610460565b610122565b60405161009d91906104dd565b60405180910390f35b6100c060048036038101906100bb91906103cb565b61016e565b6040516100cd91906104dd565b60405180910390f35b600080636d696d6360e01b90506101198484836040516020016100f991906104c2565b6040516020818303038152906040528051906020012060001c605b610182565b91505092915050565b600080636d696d6360e01b905061016584848360405160200161014591906104c2565b6040516020818303038152906040528051906020012060001c605b610294565b91505092915050565b600061017b8260006100d6565b9050919050565b60008084905060007f30644e72e131a029b85045b68181585d2833e84879b9709143e1f593f0000001905060005b875181101561028657816102068983815181106101f6577f4e487b7100000000000000000000000000000000000000000000000000000000600052603260045260246000fd5b6020026020010151858989610294565b838a8481518110610240577f4e487b7100000000000000000000000000000000000000000000000000000000600052603260045260246000fd5b60200260200101516102529190610634565b8561025d9190610555565b6102679190610555565b6102719190610634565b9250808061027e906105e1565b9150506101b0565b829350505050949350505050565b600060018210156102a457600080fd5b604051602081016040528381527f30644e72e131a029b85045b68181585d2833e84879b9709143e1f593f0000001600080855b600081111561030d5760208520855283898587518d080892508383840991508383858685860985090999506001810390506102d7565b5082888a08945050505050949350505050565b600061033361032e84610529565b6104f8565b9050808382526020820190508285602086028201111561035257600080fd5b60005b85811015610382578161036888826103b6565b845260208401935060208301925050600181019050610355565b5050509392505050565b600082601f83011261039d57600080fd5b81356103ad848260208601610320565b91505092915050565b6000813590506103c5816106f2565b92915050565b6000602082840312156103dd57600080fd5b600082013567ffffffffffffffff8111156103f757600080fd5b6104038482850161038c565b91505092915050565b6000806040838503121561041f57600080fd5b600083013567ffffffffffffffff81111561043957600080fd5b6104458582860161038c565b9250506020610456858286016103b6565b9150509250929050565b6000806040838503121561047357600080fd5b6000610481858286016103b6565b9250506020610492858286016103b6565b9150509250929050565b6104ad6104a8826105ab565b61062a565b82525050565b6104bc816105d7565b82525050565b60006104ce828461049c565b60048201915081905092915050565b60006020820190506104f260008301846104b3565b92915050565b6000604051905081810181811067ffffffffffffffff8211171561051f5761051e6106c3565b5b8060405250919050565b600067ffffffffffffffff821115610544576105436106c3565b5b602082029050602081019050919050565b6000610560826105d7565b915061056b836105d7565b9250827fffffffffffffffffffffffffffffffffffffffffffffffffffffffffffffffff038211156105a05761059f610665565b5b828201905092915050565b60007fffffffff0000000000000000000000000000000000000000000000000000000082169050919050565b6000819050919050565b60006105ec826105d7565b91507fffffffffffffffffffffffffffffffffffffffffffffffffffffffffffffffff82141561061f5761061e610665565b5b600182019050919050565b6000819050919050565b600061063f826105d7565b915061064a836105d7565b92508261065a57610659610694565b5b828206905092915050565b7f4e487b7100000000000000000000000000000000000000000000000000000000600052601160045260246000fd5b7f4e487b7100000000000000000000000000000000000000000000000000000000600052601260045260246000fd5b7f4e487b7100000000000000000000000000000000000000000000000000000000600052604160045260246000fd5b6106fb816105d7565b811461070657600080fd5b5056fea2646970667358221220f428998bbc1d4235d16cf2e5b2a4d98272ad1e90c0d87164749852db47e7eedc64736f6c63430008000033",
  "immutableReferences": {},
  "source": "// Copyright (c) 2018 HarryR\n// License: LGPL-3.0+\n// SPDX-License-Identifier: LGPL-3.0+\n\npragma solidity ^0.8.0;\n\n/**\n * Implements MiMC-p/p over the altBN scalar field used by zkSNARKs\n *\n * See: https://eprint.iacr.org/2016/492.pdf\n *\n * Round constants are generated in sequence from a seed\n */\ncontract MiMC {\n    function GetScalarField() internal pure returns (uint256) {\n        return\n            0x30644e72e131a029b85045b68181585d2833e84879b9709143e1f593f0000001; //base of field used\n    }\n\n    function Encipher(\n        uint256 in_x,\n        uint256 in_k\n    ) public pure returns (uint256 out_x) {\n        bytes4 seed = 0x6d696d63; //this is 'mimc' in hex\n        return\n            MiMCp(in_x, in_k, uint256(keccak256(abi.encodePacked(seed))), 91);\n    }\n\n    /**\n     * MiMC-p/p with exponent of 7\n     *\n     * Recommended at least 46 rounds, for a polynomial degree of 2^126\n     */\n    function MiMCp(\n        uint256 in_x,\n        uint256 in_k,\n        uint256 in_seed,\n        uint256 round_count\n    ) internal pure returns (uint256 out_x) {\n        assembly {\n            if lt(round_count, 1) {\n                revert(0, 0)\n            }\n\n            // Initialise round constants, k will be hashed\n            let c := mload(0x40)\n            mstore(0x40, add(c, 32))\n            mstore(c, in_seed)\n\n            let\n                localQ\n            := 0x30644e72e131a029b85045b68181585d2833e84879b9709143e1f593f0000001\n            let t\n            let a\n\n            // Further n-2 subsequent rounds include a round constant\n            for {\n                let i := round_count\n            } gt(i, 0) {\n                i := sub(i, 1)\n            } {\n                // c = H(c)\n                mstore(c, keccak256(c, 32))\n\n                // x = pow(x + c_i, 7, p) + k\n                t := addmod(addmod(in_x, mload(c), localQ), in_k, localQ) // t = x + c_i + k\n                a := mulmod(t, t, localQ) // t^2\n                in_x := mulmod(\n                    mulmod(a, mulmod(a, a, localQ), localQ),\n                    t,\n                    localQ\n                ) // t^7\n            }\n\n            // Result adds key again as blinding factor\n            out_x := addmod(in_x, in_k, localQ)\n        }\n    }\n\n    function MiMCp_mp(\n        uint256[] memory in_x,\n        uint256 in_k,\n        uint256 in_seed,\n        uint256 round_count\n    ) internal pure returns (uint256) {\n        uint256 r = in_k;\n        uint256 localQ = 0x30644e72e131a029b85045b68181585d2833e84879b9709143e1f593f0000001;\n        uint256 i;\n        for (i = 0; i < in_x.length; i++) {\n            r =\n                (r +\n                    (in_x[i] % localQ) +\n                    MiMCp(in_x[i], r, in_seed, round_count)) %\n                localQ;\n        }\n        return r;\n    }\n\n    function Hash(\n        uint256[] memory in_msgs,\n        uint256 in_key\n    ) public pure returns (uint256) {\n        bytes4 seed = 0x6d696d63; //this is 'mimc' in hex\n        return\n            MiMCp_mp(\n                in_msgs,\n                in_key,\n                uint256(keccak256(abi.encodePacked(seed))),\n                91\n            );\n    }\n\n    function mimcHash(uint[] memory in_msgs) public pure returns (uint) {\n        return Hash(in_msgs, 0);\n    }\n}\n",
  "sourcePath": "/app/contracts/merkle-tree/MiMC.sol",
  "compiler": {
    "name": "solc",
    "version": "0.8.0+commit.c7dfd78e.Emscripten.clang"
  },
  "schemaVersion": "3.3.3",
  "updatedAt": "2024-08-02T19:27:53.619Z",
  "devdoc": {
    "kind": "dev",
    "methods": {},
    "version": 1
  },
  "userdoc": {
    "kind": "user",
    "methods": {},
    "notice": "Implements MiMC-p/p over the altBN scalar field used by zkSNARKs See: https://eprint.iacr.org/2016/492.pdf Round constants are generated in sequence from a seed",
    "version": 1
  }
}