{
  "contractName": "ZKSender",
  "abi": [
    {
      "inputs": [
        {
          "internalType": "address",
          "name": "_token",
          "type": "address"
        }
      ],
      "stateMutability": "nonpayable",
      "type": "constructor"
    },
    {
      "inputs": [],
      "name": "reserve",
      "outputs": [
        {
          "internalType": "uint256",
          "name": "",
          "type": "uint256"
        }
      ],
      "stateMutability": "view",
      "type": "function"
    },
    {
      "inputs": [],
      "name": "token",
      "outputs": [
        {
          "internalType": "contract IERC20",
          "name": "",
          "type": "address"
        }
      ],
      "stateMutability": "view",
      "type": "function"
    },
    {
      "inputs": [
        {
          "internalType": "uint256",
          "name": "_amountIn",
          "type": "uint256"
        }
      ],
      "name": "vault",
      "outputs": [
        {
          "internalType": "bool",
          "name": "",
          "type": "bool"
        }
      ],
      "stateMutability": "nonpayable",
      "type": "function"
    },
    {
      "inputs": [],
      "name": "unvault",
      "outputs": [
        {
          "internalType": "bool",
          "name": "",
          "type": "bool"
        }
      ],
      "stateMutability": "nonpayable",
      "type": "function"
    },
    {
      "inputs": [
        {
          "internalType": "address",
          "name": "recipient",
          "type": "address"
        },
        {
          "internalType": "uint256",
          "name": "amount",
          "type": "uint256"
        }
      ],
      "name": "transfer",
      "outputs": [
        {
          "internalType": "bool",
          "name": "",
          "type": "bool"
        }
      ],
      "stateMutability": "nonpayable",
      "type": "function"
    }
  ],
  "bytecode": "0x60a060405234801561000f575f80fd5b50604051610b79380380610b79833981810160405281019061003191906100c9565b8073ffffffffffffffffffffffffffffffffffffffff1660808173ffffffffffffffffffffffffffffffffffffffff1681525050506100f4565b5f80fd5b5f73ffffffffffffffffffffffffffffffffffffffff82169050919050565b5f6100988261006f565b9050919050565b6100a88161008e565b81146100b2575f80fd5b50565b5f815190506100c38161009f565b92915050565b5f602082840312156100de576100dd61006b565b5b5f6100eb848285016100b5565b91505092915050565b608051610a5f61011a5f395f81816101580152818161046701526105620152610a5f5ff3fe608060405234801561000f575f80fd5b5060043610610055575f3560e01c806381a36fb614610059578063a9059cbb14610089578063cd3293de146100b9578063e0172602146100d7578063fc0c546a146100f5575b5f80fd5b610073600480360381019061006e91906105bb565b610113565b6040516100809190610600565b60405180910390f35b6100a3600480360381019061009e9190610673565b6102a5565b6040516100b09190610600565b60405180910390f35b6100c1610398565b6040516100ce91906106c0565b60405180910390f35b6100df61039d565b6040516100ec9190610600565b60405180910390f35b6100fd610560565b60405161010a9190610734565b60405180910390f35b5f808211610156576040517f08c379a000000000000000000000000000000000000000000000000000000000815260040161014d906107a7565b60405180910390fd5b7f000000000000000000000000000000000000000000000000000000000000000073ffffffffffffffffffffffffffffffffffffffff166323b872dd3330856040518463ffffffff1660e01b81526004016101b3939291906107d4565b6020604051808303815f875af11580156101cf573d5f803e3d5ffd5b505050506040513d601f19601f820116820180604052508101906101f39190610833565b610232576040517f08c379a0000000000000000000000000000000000000000000000000000000008152600401610229906108a8565b60405180910390fd5b8160015f3373ffffffffffffffffffffffffffffffffffffffff1673ffffffffffffffffffffffffffffffffffffffff1681526020019081526020015f205f82825461027e91906108f3565b92505081905550815f8082825461029591906108f3565b9250508190555060019050919050565b5f8082116102e8576040517f08c379a00000000000000000000000000000000000000000000000000000000081526004016102df906107a7565b60405180910390fd5b8160015f3373ffffffffffffffffffffffffffffffffffffffff1673ffffffffffffffffffffffffffffffffffffffff1681526020019081526020015f205f8282546103349190610926565b925050819055508160015f8573ffffffffffffffffffffffffffffffffffffffff1673ffffffffffffffffffffffffffffffffffffffff1681526020019081526020015f205f82825461038791906108f3565b925050819055506001905092915050565b5f5481565b5f8060015f3373ffffffffffffffffffffffffffffffffffffffff1673ffffffffffffffffffffffffffffffffffffffff1681526020019081526020015f205490505f8111610421576040517f08c379a0000000000000000000000000000000000000000000000000000000008152600401610418906109a3565b60405180910390fd5b805f541015610465576040517f08c379a000000000000000000000000000000000000000000000000000000000815260040161045c90610a0b565b60405180910390fd5b7f000000000000000000000000000000000000000000000000000000000000000073ffffffffffffffffffffffffffffffffffffffff166323b872dd3033846040518463ffffffff1660e01b81526004016104c2939291906107d4565b6020604051808303815f875af11580156104de573d5f803e3d5ffd5b505050506040513d601f19601f820116820180604052508101906105029190610833565b610541576040517f08c379a0000000000000000000000000000000000000000000000000000000008152600401610538906108a8565b60405180910390fd5b805f808282546105519190610926565b92505081905550600191505090565b7f000000000000000000000000000000000000000000000000000000000000000081565b5f80fd5b5f819050919050565b61059a81610588565b81146105a4575f80fd5b50565b5f813590506105b581610591565b92915050565b5f602082840312156105d0576105cf610584565b5b5f6105dd848285016105a7565b91505092915050565b5f8115159050919050565b6105fa816105e6565b82525050565b5f6020820190506106135f8301846105f1565b92915050565b5f73ffffffffffffffffffffffffffffffffffffffff82169050919050565b5f61064282610619565b9050919050565b61065281610638565b811461065c575f80fd5b50565b5f8135905061066d81610649565b92915050565b5f806040838503121561068957610688610584565b5b5f6106968582860161065f565b92505060206106a7858286016105a7565b9150509250929050565b6106ba81610588565b82525050565b5f6020820190506106d35f8301846106b1565b92915050565b5f819050919050565b5f6106fc6106f76106f284610619565b6106d9565b610619565b9050919050565b5f61070d826106e2565b9050919050565b5f61071e82610703565b9050919050565b61072e81610714565b82525050565b5f6020820190506107475f830184610725565b92915050565b5f82825260208201905092915050565b7f416d6f756e74206d7573742062652067726561746572207468616e20300000005f82015250565b5f610791601d8361074d565b915061079c8261075d565b602082019050919050565b5f6020820190508181035f8301526107be81610785565b9050919050565b6107ce81610638565b82525050565b5f6060820190506107e75f8301866107c5565b6107f460208301856107c5565b61080160408301846106b1565b949350505050565b610812816105e6565b811461081c575f80fd5b50565b5f8151905061082d81610809565b92915050565b5f6020828403121561084857610847610584565b5b5f6108558482850161081f565b91505092915050565b7f5472616e73666572206661696c656400000000000000000000000000000000005f82015250565b5f610892600f8361074d565b915061089d8261085e565b602082019050919050565b5f6020820190508181035f8301526108bf81610886565b9050919050565b7f4e487b71000000000000000000000000000000000000000000000000000000005f52601160045260245ffd5b5f6108fd82610588565b915061090883610588565b92508282019050808211156109205761091f6108c6565b5b92915050565b5f61093082610588565b915061093b83610588565b9250828203905081811115610953576109526108c6565b5b92915050565b7f596f752068617665206e6f2066756e647320617661696c61626c6500000000005f82015250565b5f61098d601b8361074d565b915061099882610959565b602082019050919050565b5f6020820190508181035f8301526109ba81610981565b9050919050565b7f556e73756666696369616e742066756e647300000000000000000000000000005f82015250565b5f6109f560128361074d565b9150610a00826109c1565b602082019050919050565b5f6020820190508181035f830152610a22816109e9565b905091905056fea2646970667358221220b9021c630fd3ec4ff67a378f7ee53738e375a21a12da7923088fbd0b0b21f17064736f6c63430008150033",
  "immutableReferences": {
    "71": [
      {
        "length": 32,
        "start": 344
      },
      {
        "length": 32,
        "start": 1127
      },
      {
        "length": 32,
        "start": 1378
      }
    ]
  },
  "source": "// SPDX-License-Identifier: MIT\npragma solidity ^0.8.21;\n\ninterface IERC20 {\n    function totalSupply() external view returns (uint);\n    function balanceOf(address account) external view returns (uint);\n\n    function transfer(address recipient, uint amount) external returns (bool);\n\n    function allowance(\n        address owner,\n        address spender\n    ) external view returns (uint);\n\n    function approve(address spender, uint amount) external returns (bool);\n\n    function transferFrom(\n        address sender,\n        address recipient,\n        uint amount\n    ) external returns (bool);\n\n    event Transfer(address indexed from, address indexed to, uint amount);\n    event Approval(address indexed owner, address indexed spender, uint amount);\n}\n\ncontract ZKSender {\n    IERC20 public immutable token;\n    uint public reserve;\n\n    mapping(address => uint) balances;\n\n    constructor(address _token) {\n        token = IERC20(_token);\n    }\n\n    // This function hides the tokens and makes them only accessible via ZKP\n    function vault(uint _amountIn) external returns (bool) {\n        // First, transfer the funds from the user to this contract (lock funds)\n        require(_amountIn > 0, \"Amount must be greater than 0\");\n        require(\n            token.transferFrom(msg.sender, address(this), _amountIn),\n            \"Transfer failed\"\n        );\n\n        // Then, update the balance of the user in the ZKP way\n        balances[msg.sender] += _amountIn;\n        reserve += _amountIn;\n\n        // We could apply some fees here.\n        // Alternatively, they could be applied on withdrawal\n\n        // emit something? Emit a commitment change?\n\n        return true;\n    }\n\n    //  This function UNhides the tokens and makes them transparently accissable\n    //  For the simplicity this function supports only full withdrawals.\n    //  No partial withdrawals\n    function unvault() external returns (bool) {\n        uint amount = balances[msg.sender];\n\n        require(amount > 0, \"You have no funds available\");\n        require(reserve >= amount, \"Unsufficiant funds\"); // This should never happen!\n        require(\n            token.transferFrom(address(this), msg.sender, amount),\n            \"Transfer failed\"\n        );\n\n        reserve -= amount;\n\n        // We could apply some fees here, if we wanted to\n\n        // Emit something? A commitment change?\n\n        return true;\n    }\n\n    // This function sends the funds within the ZKP\n    function transfer(address recipient, uint amount) external returns (bool) {\n        require(amount > 0, \"Amount must be greater than 0\");\n        balances[msg.sender] -= amount;\n        balances[recipient] += amount;\n\n        // Emit something? A commitment change?\n\n        return true;\n    }\n}\n",
  "sourcePath": "/Users/kaiser/ucl/T3/thesis-starlight/contracts/ex.sol",
  "compiler": {
    "name": "solc",
    "version": "0.8.21+commit.d9974bed.Emscripten.clang"
  },
  "schemaVersion": "3.4.16",
  "updatedAt": "2024-07-22T01:21:01.096Z",
  "devdoc": {
    "kind": "dev",
    "methods": {},
    "version": 1
  },
  "userdoc": {
    "kind": "user",
    "methods": {},
    "version": 1
  }
}