{
  "contractName": "ERC20",
  "abi": [
    {
      "inputs": [
        {
          "internalType": "string",
          "name": "name_",
          "type": "string"
        },
        {
          "internalType": "string",
          "name": "symbol_",
          "type": "string"
        }
      ],
      "stateMutability": "nonpayable",
      "type": "constructor"
    },
    {
      "anonymous": false,
      "inputs": [
        {
          "indexed": true,
          "internalType": "address",
          "name": "owner",
          "type": "address"
        },
        {
          "indexed": true,
          "internalType": "address",
          "name": "spender",
          "type": "address"
        },
        {
          "indexed": false,
          "internalType": "uint256",
          "name": "value",
          "type": "uint256"
        }
      ],
      "name": "Approval",
      "type": "event"
    },
    {
      "anonymous": false,
      "inputs": [
        {
          "indexed": true,
          "internalType": "address",
          "name": "from",
          "type": "address"
        },
        {
          "indexed": true,
          "internalType": "address",
          "name": "to",
          "type": "address"
        },
        {
          "indexed": false,
          "internalType": "uint256",
          "name": "value",
          "type": "uint256"
        }
      ],
      "name": "Transfer",
      "type": "event"
    },
    {
      "inputs": [],
      "name": "_decimals",
      "outputs": [
        {
          "internalType": "uint8",
          "name": "",
          "type": "uint8"
        }
      ],
      "stateMutability": "view",
      "type": "function"
    },
    {
      "inputs": [],
      "name": "_name",
      "outputs": [
        {
          "internalType": "string",
          "name": "",
          "type": "string"
        }
      ],
      "stateMutability": "view",
      "type": "function"
    },
    {
      "inputs": [],
      "name": "_symbol",
      "outputs": [
        {
          "internalType": "string",
          "name": "",
          "type": "string"
        }
      ],
      "stateMutability": "view",
      "type": "function"
    },
    {
      "inputs": [
        {
          "internalType": "address",
          "name": "",
          "type": "address"
        },
        {
          "internalType": "address",
          "name": "",
          "type": "address"
        }
      ],
      "name": "allowances",
      "outputs": [
        {
          "internalType": "uint256",
          "name": "",
          "type": "uint256"
        }
      ],
      "stateMutability": "view",
      "type": "function"
    },
    {
      "inputs": [
        {
          "internalType": "address",
          "name": "",
          "type": "address"
        }
      ],
      "name": "balances",
      "outputs": [
        {
          "internalType": "uint256",
          "name": "",
          "type": "uint256"
        }
      ],
      "stateMutability": "view",
      "type": "function"
    },
    {
      "inputs": [],
      "name": "supply",
      "outputs": [
        {
          "internalType": "uint256",
          "name": "",
          "type": "uint256"
        }
      ],
      "stateMutability": "view",
      "type": "function"
    },
    {
      "inputs": [],
      "name": "name",
      "outputs": [
        {
          "internalType": "string",
          "name": "",
          "type": "string"
        }
      ],
      "stateMutability": "view",
      "type": "function"
    },
    {
      "inputs": [],
      "name": "symbol",
      "outputs": [
        {
          "internalType": "string",
          "name": "",
          "type": "string"
        }
      ],
      "stateMutability": "view",
      "type": "function"
    },
    {
      "inputs": [],
      "name": "decimals",
      "outputs": [
        {
          "internalType": "uint8",
          "name": "",
          "type": "uint8"
        }
      ],
      "stateMutability": "view",
      "type": "function"
    },
    {
      "inputs": [],
      "name": "totalSupply",
      "outputs": [
        {
          "internalType": "uint256",
          "name": "",
          "type": "uint256"
        }
      ],
      "stateMutability": "view",
      "type": "function"
    },
    {
      "inputs": [
        {
          "internalType": "address",
          "name": "account",
          "type": "address"
        }
      ],
      "name": "balanceOf",
      "outputs": [
        {
          "internalType": "uint256",
          "name": "",
          "type": "uint256"
        }
      ],
      "stateMutability": "view",
      "type": "function"
    },
    {
      "inputs": [
        {
          "internalType": "address",
          "name": "recipient",
          "type": "address"
        },
        {
          "internalType": "uint256",
          "name": "amount",
          "type": "uint256"
        }
      ],
      "name": "transfer",
      "outputs": [
        {
          "internalType": "bool",
          "name": "",
          "type": "bool"
        }
      ],
      "stateMutability": "nonpayable",
      "type": "function"
    },
    {
      "inputs": [
        {
          "internalType": "address",
          "name": "owner",
          "type": "address"
        },
        {
          "internalType": "address",
          "name": "spender",
          "type": "address"
        }
      ],
      "name": "allowance",
      "outputs": [
        {
          "internalType": "uint256",
          "name": "",
          "type": "uint256"
        }
      ],
      "stateMutability": "view",
      "type": "function"
    },
    {
      "inputs": [
        {
          "internalType": "address",
          "name": "spender",
          "type": "address"
        },
        {
          "internalType": "uint256",
          "name": "amount",
          "type": "uint256"
        }
      ],
      "name": "approve",
      "outputs": [
        {
          "internalType": "bool",
          "name": "",
          "type": "bool"
        }
      ],
      "stateMutability": "nonpayable",
      "type": "function"
    },
    {
      "inputs": [
        {
          "internalType": "address",
          "name": "sender",
          "type": "address"
        },
        {
          "internalType": "address",
          "name": "recipient",
          "type": "address"
        },
        {
          "internalType": "uint256",
          "name": "amount",
          "type": "uint256"
        }
      ],
      "name": "transferFrom",
      "outputs": [
        {
          "internalType": "bool",
          "name": "",
          "type": "bool"
        }
      ],
      "stateMutability": "nonpayable",
      "type": "function"
    },
    {
      "inputs": [
        {
          "internalType": "address",
          "name": "recipient",
          "type": "address"
        },
        {
          "internalType": "uint256",
          "name": "amount",
          "type": "uint256"
        }
      ],
      "name": "_transfer",
      "outputs": [
        {
          "internalType": "bool",
          "name": "",
          "type": "bool"
        }
      ],
      "stateMutability": "nonpayable",
      "type": "function"
    },
    {
      "inputs": [
        {
          "internalType": "address",
          "name": "recipient",
          "type": "address"
        },
        {
          "internalType": "uint256",
          "name": "amount",
          "type": "uint256"
        }
      ],
      "name": "_mint",
      "outputs": [
        {
          "internalType": "bool",
          "name": "",
          "type": "bool"
        }
      ],
      "stateMutability": "nonpayable",
      "type": "function"
    },
    {
      "inputs": [
        {
          "internalType": "address",
          "name": "recipient",
          "type": "address"
        },
        {
          "internalType": "uint256",
          "name": "amount",
          "type": "uint256"
        }
      ],
      "name": "_burn",
      "outputs": [
        {
          "internalType": "bool",
          "name": "",
          "type": "bool"
        }
      ],
      "stateMutability": "nonpayable",
      "type": "function"
    }
  ],
  "bytecode": "0x608060405260646000556012600560006101000a81548160ff021916908360ff1602179055503480156200003257600080fd5b506040516200166e3803806200166e8339818101604052810190620000589190620001fa565b600054600160003373ffffffffffffffffffffffffffffffffffffffff1673ffffffffffffffffffffffffffffffffffffffff168152602001908152602001600020819055508160039080519060200190620000b6929190620000d8565b508060049080519060200190620000cf929190620000d8565b5050506200039e565b828054620000e6906200030a565b90600052602060002090601f0160209004810192826200010a576000855562000156565b82601f106200012557805160ff191683800117855562000156565b8280016001018555821562000156579182015b828111156200015557825182559160200191906001019062000138565b5b50905062000165919062000169565b5090565b5b80821115620001845760008160009055506001016200016a565b5090565b60006200019f6200019984620002a1565b6200026d565b905082815260208101848484011115620001b857600080fd5b620001c5848285620002d4565b509392505050565b600082601f830112620001df57600080fd5b8151620001f184826020860162000188565b91505092915050565b600080604083850312156200020e57600080fd5b600083015167ffffffffffffffff8111156200022957600080fd5b6200023785828601620001cd565b925050602083015167ffffffffffffffff8111156200025557600080fd5b6200026385828601620001cd565b9150509250929050565b6000604051905081810181811067ffffffffffffffff821117156200029757620002966200036f565b5b8060405250919050565b600067ffffffffffffffff821115620002bf57620002be6200036f565b5b601f19601f8301169050602081019050919050565b60005b83811015620002f4578082015181840152602081019050620002d7565b8381111562000304576000848401525b50505050565b600060028204905060018216806200032357607f821691505b602082108114156200033a576200033962000340565b5b50919050565b7f4e487b7100000000000000000000000000000000000000000000000000000000600052602260045260246000fd5b7f4e487b7100000000000000000000000000000000000000000000000000000000600052604160045260246000fd5b6112c080620003ae6000396000f3fe608060405234801561001057600080fd5b50600436106101165760003560e01c80634e6ec247116100a257806395d89b411161007157806395d89b4114610331578063a9059cbb1461034f578063b09f12661461037f578063d28d88521461039d578063dd62ed3e146103bb57610116565b80634e6ec2471461027157806355b6ed5c146102a15780636161eb18146102d157806370a082311461030157610116565b806323b872dd116100e957806323b872dd146101a557806327e235e3146101d5578063313ce5671461020557806332424aa3146102235780634847a79c1461024157610116565b8063047fc9aa1461011b57806306fdde0314610139578063095ea7b31461015757806318160ddd14610187575b600080fd5b6101236103eb565b6040516101309190611057565b60405180910390f35b6101416103f1565b60405161014e9190610ff5565b60405180910390f35b610171600480360381019061016c9190610eb8565b610483565b60405161017e9190610fda565b60405180910390f35b61018f610575565b60405161019c9190611057565b60405180910390f35b6101bf60048036038101906101ba9190610e69565b61057e565b6040516101cc9190610fda565b60405180910390f35b6101ef60048036038101906101ea9190610e04565b6106e9565b6040516101fc9190611057565b60405180910390f35b61020d610701565b60405161021a9190611072565b60405180910390f35b61022b610718565b6040516102389190611072565b60405180910390f35b61025b60048036038101906102569190610eb8565b61072b565b6040516102689190610fda565b60405180910390f35b61028b60048036038101906102869190610eb8565b610740565b6040516102989190610fda565b60405180910390f35b6102bb60048036038101906102b69190610e2d565b610820565b6040516102c89190611057565b60405180910390f35b6102eb60048036038101906102e69190610eb8565b610845565b6040516102f89190610fda565b60405180910390f35b61031b60048036038101906103169190610e04565b6109a7565b6040516103289190611057565b60405180910390f35b6103396109f0565b6040516103469190610ff5565b60405180910390f35b61036960048036038101906103649190610eb8565b610a82565b6040516103769190610fda565b60405180910390f35b610387610a97565b6040516103949190610ff5565b60405180910390f35b6103a5610b25565b6040516103b29190610ff5565b60405180910390f35b6103d560048036038101906103d09190610e2d565b610bb3565b6040516103e29190611057565b60405180910390f35b60005481565b606060038054610400906111bb565b80601f016020809104026020016040519081016040528092919081815260200182805461042c906111bb565b80156104795780601f1061044e57610100808354040283529160200191610479565b820191906000526020600020905b81548152906001019060200180831161045c57829003601f168201915b5050505050905090565b600081600260003373ffffffffffffffffffffffffffffffffffffffff1673ffffffffffffffffffffffffffffffffffffffff16815260200190815260200160002060008573ffffffffffffffffffffffffffffffffffffffff1673ffffffffffffffffffffffffffffffffffffffff168152602001908152602001600020819055508273ffffffffffffffffffffffffffffffffffffffff163373ffffffffffffffffffffffffffffffffffffffff167f8c5be1e5ebec7d5bd14f71427d1e84f3dd0314c0f7b2291e5b200ac8c7c3b925846040516105639190611057565b60405180910390a36001905092915050565b60008054905090565b600081600260008673ffffffffffffffffffffffffffffffffffffffff1673ffffffffffffffffffffffffffffffffffffffff16815260200190815260200160002060003373ffffffffffffffffffffffffffffffffffffffff1673ffffffffffffffffffffffffffffffffffffffff16815260200190815260200160002054101561063f576040517f08c379a000000000000000000000000000000000000000000000000000000000815260040161063690611017565b60405180910390fd5b61064a848484610c3a565b5081600260008673ffffffffffffffffffffffffffffffffffffffff1673ffffffffffffffffffffffffffffffffffffffff16815260200190815260200160002060003373ffffffffffffffffffffffffffffffffffffffff1673ffffffffffffffffffffffffffffffffffffffff16815260200190815260200160002060008282546106d791906110ff565b92505081905550600190509392505050565b60016020528060005260406000206000915090505481565b6000600560009054906101000a900460ff16905090565b600560009054906101000a900460ff1681565b6000610738338484610c3a565b905092915050565b600081600160008573ffffffffffffffffffffffffffffffffffffffff1673ffffffffffffffffffffffffffffffffffffffff168152602001908152602001600020600082825461079191906110a9565b92505081905550816000808282546107a991906110a9565b925050819055508273ffffffffffffffffffffffffffffffffffffffff16600073ffffffffffffffffffffffffffffffffffffffff167fddf252ad1be2c89b69c2b068fc378daa952ba7f163c4a11628f55a4df523b3ef8460405161080e9190611057565b60405180910390a36001905092915050565b6002602052816000526040600020602052806000526040600020600091509150505481565b600081600160008573ffffffffffffffffffffffffffffffffffffffff1673ffffffffffffffffffffffffffffffffffffffff1681526020019081526020016000205410156108c9576040517f08c379a00000000000000000000000000000000000000000000000000000000081526004016108c090611037565b60405180910390fd5b81600160008573ffffffffffffffffffffffffffffffffffffffff1673ffffffffffffffffffffffffffffffffffffffff168152602001908152602001600020600082825461091891906110ff565b925050819055508160008082825461093091906110ff565b92505081905550600073ffffffffffffffffffffffffffffffffffffffff168373ffffffffffffffffffffffffffffffffffffffff167fddf252ad1be2c89b69c2b068fc378daa952ba7f163c4a11628f55a4df523b3ef846040516109959190611057565b60405180910390a36001905092915050565b6000600160008373ffffffffffffffffffffffffffffffffffffffff1673ffffffffffffffffffffffffffffffffffffffff168152602001908152602001600020549050919050565b6060600480546109ff906111bb565b80601f0160208091040260200160405190810160405280929190818152602001828054610a2b906111bb565b8015610a785780601f10610a4d57610100808354040283529160200191610a78565b820191906000526020600020905b815481529060010190602001808311610a5b57829003601f168201915b5050505050905090565b6000610a8f338484610c3a565b905092915050565b60048054610aa4906111bb565b80601f0160208091040260200160405190810160405280929190818152602001828054610ad0906111bb565b8015610b1d5780601f10610af257610100808354040283529160200191610b1d565b820191906000526020600020905b815481529060010190602001808311610b0057829003601f168201915b505050505081565b60038054610b32906111bb565b80601f0160208091040260200160405190810160405280929190818152602001828054610b5e906111bb565b8015610bab5780601f10610b8057610100808354040283529160200191610bab565b820191906000526020600020905b815481529060010190602001808311610b8e57829003601f168201915b505050505081565b6000600260008473ffffffffffffffffffffffffffffffffffffffff1673ffffffffffffffffffffffffffffffffffffffff16815260200190815260200160002060008373ffffffffffffffffffffffffffffffffffffffff1673ffffffffffffffffffffffffffffffffffffffff16815260200190815260200160002054905092915050565b600081600160008673ffffffffffffffffffffffffffffffffffffffff1673ffffffffffffffffffffffffffffffffffffffff168152602001908152602001600020541015610cbe576040517f08c379a0000000000000000000000000000000000000000000000000000000008152600401610cb590611037565b60405180910390fd5b81600160008673ffffffffffffffffffffffffffffffffffffffff1673ffffffffffffffffffffffffffffffffffffffff1681526020019081526020016000206000828254610d0d91906110ff565b9250508190555081600160008573ffffffffffffffffffffffffffffffffffffffff1673ffffffffffffffffffffffffffffffffffffffff1681526020019081526020016000206000828254610d6391906110a9565b925050819055508273ffffffffffffffffffffffffffffffffffffffff168473ffffffffffffffffffffffffffffffffffffffff167fddf252ad1be2c89b69c2b068fc378daa952ba7f163c4a11628f55a4df523b3ef84604051610dc79190611057565b60405180910390a3600190509392505050565b600081359050610de98161125c565b92915050565b600081359050610dfe81611273565b92915050565b600060208284031215610e1657600080fd5b6000610e2484828501610dda565b91505092915050565b60008060408385031215610e4057600080fd5b6000610e4e85828601610dda565b9250506020610e5f85828601610dda565b9150509250929050565b600080600060608486031215610e7e57600080fd5b6000610e8c86828701610dda565b9350506020610e9d86828701610dda565b9250506040610eae86828701610def565b9150509250925092565b60008060408385031215610ecb57600080fd5b6000610ed985828601610dda565b9250506020610eea85828601610def565b9150509250929050565b610efd81611145565b82525050565b6000610f0e8261108d565b610f188185611098565b9350610f28818560208601611188565b610f318161124b565b840191505092915050565b6000610f49601683611098565b91507f496e73756666696369656e7420616c6c6f77616e6365000000000000000000006000830152602082019050919050565b6000610f89601483611098565b91507f496e73756666696369656e742062616c616e63650000000000000000000000006000830152602082019050919050565b610fc581611171565b82525050565b610fd48161117b565b82525050565b6000602082019050610fef6000830184610ef4565b92915050565b6000602082019050818103600083015261100f8184610f03565b905092915050565b6000602082019050818103600083015261103081610f3c565b9050919050565b6000602082019050818103600083015261105081610f7c565b9050919050565b600060208201905061106c6000830184610fbc565b92915050565b60006020820190506110876000830184610fcb565b92915050565b600081519050919050565b600082825260208201905092915050565b60006110b482611171565b91506110bf83611171565b9250827fffffffffffffffffffffffffffffffffffffffffffffffffffffffffffffffff038211156110f4576110f36111ed565b5b828201905092915050565b600061110a82611171565b915061111583611171565b925082821015611128576111276111ed565b5b828203905092915050565b600061113e82611151565b9050919050565b60008115159050919050565b600073ffffffffffffffffffffffffffffffffffffffff82169050919050565b6000819050919050565b600060ff82169050919050565b60005b838110156111a657808201518184015260208101905061118b565b838111156111b5576000848401525b50505050565b600060028204905060018216806111d357607f821691505b602082108114156111e7576111e661121c565b5b50919050565b7f4e487b7100000000000000000000000000000000000000000000000000000000600052601160045260246000fd5b7f4e487b7100000000000000000000000000000000000000000000000000000000600052602260045260246000fd5b6000601f19601f8301169050919050565b61126581611133565b811461127057600080fd5b50565b61127c81611171565b811461128757600080fd5b5056fea26469706673582212205120e97abb6e5f038258caf9e67dad41723b740252174645020ae554f01503e464736f6c63430008000033",
  "immutableReferences": {},
  "source": "// SPDX-License-Identifier: MIT\npragma solidity ^0.8.0;\n\ninterface IERC20 {\n    function name() external view returns (string memory);\n    function symbol() external view returns (string memory);\n    function decimals() external view returns (uint8);\n\n    function totalSupply() external view returns (uint256);\n    function balanceOf(address account) external view returns (uint256);\n    function transfer(\n        address recipient,\n        uint256 amount\n    ) external returns (bool);\n    function transferFrom(\n        address sender,\n        address recipient,\n        uint256 amount\n    ) external returns (bool);\n    function approve(address spender, uint256 amount) external returns (bool);\n    function allowance(\n        address owner,\n        address spender\n    ) external view returns (uint256);\n\n    function _transfer(\n        address recipient,\n        uint256 amount\n    ) external returns (bool);\n    // function _mint(address recipient, uint256 amount) external returns (bool);\n    // function _mint(address recipient, uint256 amount) public returns (bool);\n    function _burn(address recipient, uint256 amount) external returns (bool);\n\n    event Transfer(address indexed from, address indexed to, uint256 value);\n    event Approval(\n        address indexed owner,\n        address indexed spender,\n        uint256 value\n    );\n}\n\ncontract ERC20 is IERC20 {\n    // Specify the total supply of tokens\n    uint256 public supply = 100;\n\n    // Create a mapping to keep track of balances\n    mapping(address => uint256) public balances;\n\n    // Create a mapping to keep track of allowances\n    mapping(address => mapping(address => uint256)) public allowances;\n\n    // Specify the name of the token\n    string public _name;\n\n    // Specify the symbol of the token\n    string public _symbol;\n\n    // Specify the number of decimals for the token\n    uint8 public _decimals = 18;\n\n    // Initialize the total supply and allocate all tokens to the contract creator\n    constructor(string memory name_, string memory symbol_) {\n        balances[msg.sender] = supply;\n        _name = name_;\n        _symbol = symbol_;\n    }\n\n    function name() external view override returns (string memory) {\n        return _name;\n    }\n\n    function symbol() external view override returns (string memory) {\n        return _symbol;\n    }\n\n    function decimals() external view override returns (uint8) {\n        return _decimals;\n    }\n\n    function totalSupply() external view override returns (uint256) {\n        return supply;\n    }\n\n    function balanceOf(\n        address account\n    ) external view override returns (uint256) {\n        return balances[account];\n    }\n\n    // Transfer tokens from the sender to the recipient, and emit the Transfer event\n    function transfer(\n        address recipient,\n        uint256 amount\n    ) external override returns (bool) {\n        return performTransfer(msg.sender, recipient, amount);\n    }\n\n    function allowance(\n        address owner,\n        address spender\n    ) external view override returns (uint256) {\n        return allowances[owner][spender];\n    }\n\n    // Approve the spender to spend the specified amount of tokens on behalf of the owner, and emit the Approval event\n    function approve(\n        address spender,\n        uint256 amount\n    ) external override returns (bool) {\n        allowances[msg.sender][spender] = amount; // previous sender->spender allowance is overwritten\n        emit Approval(msg.sender, spender, amount);\n        return true;\n    }\n\n    // Transfer tokens from the sender to the recipient, and emit the Transfer event\n    function transferFrom(\n        address sender,\n        address recipient,\n        uint256 amount\n    ) external override returns (bool) {\n        require(\n            allowances[sender][msg.sender] >= amount,\n            \"Insufficient allowance\"\n        );\n\n        // seems unnecessary\n        // bool c = performTransfer(sender, recipient, amount);\n        // if (!c) return c;\n\n        performTransfer(sender, recipient, amount);\n\n        allowances[sender][msg.sender] -= amount;\n        return true;\n    }\n\n    function _transfer(\n        address recipient,\n        uint256 amount\n    ) external override returns (bool) {\n        return performTransfer(msg.sender, recipient, amount);\n    }\n\n    function _mint(address recipient, uint256 amount) external returns (bool) {\n        balances[recipient] += amount;\n        supply += amount;\n\n        emit Transfer(address(0), recipient, amount);\n        return true;\n    }\n\n    function _burn(\n        address recipient,\n        uint256 amount\n    ) external override returns (bool) {\n        require(balances[recipient] >= amount, \"Insufficient balance\");\n        balances[recipient] -= amount;\n        supply -= amount;\n\n        emit Transfer(recipient, address(0), amount);\n        return true;\n    }\n\n    // this function actually performs the transfer, as the transfer function is external\n    function performTransfer(\n        address sender,\n        address recipient,\n        uint256 amount\n    ) internal returns (bool) {\n        require(balances[sender] >= amount, \"Insufficient balance\");\n\n        balances[sender] -= amount;\n        balances[recipient] += amount;\n\n        emit Transfer(sender, recipient, amount);\n        return true;\n    }\n}\n",
  "sourcePath": "/Users/kaiser/ucl/T3/thesis-starlight/zapps/vault/contracts/erc20.sol",
  "compiler": {
    "name": "solc",
    "version": "0.8.0+commit.c7dfd78e.Emscripten.clang"
  },
  "schemaVersion": "3.4.16",
  "updatedAt": "2024-08-04T20:15:33.348Z",
  "devdoc": {
    "kind": "dev",
    "methods": {},
    "version": 1
  },
  "userdoc": {
    "kind": "user",
    "methods": {},
    "version": 1
  }
}